{
  "contractName": "Arbiter",
  "abi": [
    {
      "inputs": [
        {
          "internalType": "address",
          "name": "c",
          "type": "address"
        }
      ],
      "payable": false,
      "stateMutability": "nonpayable",
      "type": "constructor"
    },
    {
      "anonymous": false,
      "inputs": [
        {
          "indexed": true,
          "internalType": "address",
          "name": "provider",
          "type": "address"
        },
        {
          "indexed": true,
          "internalType": "address",
          "name": "subscriber",
          "type": "address"
        },
        {
          "indexed": false,
          "internalType": "uint256",
          "name": "publicKey",
          "type": "uint256"
        },
        {
          "indexed": true,
          "internalType": "uint256",
          "name": "amount",
          "type": "uint256"
        },
        {
          "indexed": false,
          "internalType": "bytes32[]",
          "name": "endpointParams",
          "type": "bytes32[]"
        },
        {
          "indexed": false,
          "internalType": "bytes32",
          "name": "endpoint",
          "type": "bytes32"
        }
      ],
      "name": "DataPurchase",
      "type": "event"
    },
    {
      "anonymous": false,
      "inputs": [
        {
          "indexed": true,
          "internalType": "address",
          "name": "provider",
          "type": "address"
        },
        {
          "indexed": true,
          "internalType": "address",
          "name": "subscriber",
          "type": "address"
        },
        {
          "indexed": true,
          "internalType": "enum Arbiter.SubscriptionTerminator",
          "name": "terminator",
          "type": "uint8"
        }
      ],
      "name": "DataSubscriptionEnd",
      "type": "event"
    },
    {
      "anonymous": false,
      "inputs": [
        {
          "indexed": true,
          "internalType": "address",
          "name": "previousOwner",
          "type": "address"
        },
        {
          "indexed": true,
          "internalType": "address",
          "name": "newOwner",
          "type": "address"
        }
      ],
      "name": "OwnershipTransferred",
      "type": "event"
    },
    {
      "anonymous": false,
      "inputs": [
        {
          "indexed": true,
          "internalType": "address",
          "name": "sender",
          "type": "address"
        },
        {
          "indexed": true,
          "internalType": "address",
          "name": "receiver",
          "type": "address"
        },
        {
          "indexed": false,
          "internalType": "bytes32",
          "name": "endpoint",
          "type": "bytes32"
        },
        {
          "indexed": false,
          "internalType": "bytes32[]",
          "name": "params",
          "type": "bytes32[]"
        }
      ],
      "name": "ParamsPassed",
      "type": "event"
    },
    {
      "constant": true,
      "inputs": [],
      "name": "bondageAddress",
      "outputs": [
        {
          "internalType": "address",
          "name": "",
          "type": "address"
        }
      ],
      "payable": false,
      "stateMutability": "view",
      "type": "function"
    },
    {
      "constant": true,
      "inputs": [],
      "name": "db",
      "outputs": [
        {
          "internalType": "contract DatabaseInterface",
          "name": "",
          "type": "address"
        }
      ],
      "payable": false,
      "stateMutability": "view",
      "type": "function"
    },
    {
      "constant": true,
      "inputs": [],
      "name": "owner",
      "outputs": [
        {
          "internalType": "address payable",
          "name": "",
          "type": "address"
        }
      ],
      "payable": false,
      "stateMutability": "view",
      "type": "function"
    },
    {
      "constant": false,
      "inputs": [],
      "name": "selfDestruct",
      "outputs": [],
      "payable": false,
      "stateMutability": "nonpayable",
      "type": "function"
    },
    {
      "constant": false,
      "inputs": [
        {
          "internalType": "address payable",
          "name": "newOwner",
          "type": "address"
        }
      ],
      "name": "transferOwnership",
      "outputs": [],
      "payable": false,
      "stateMutability": "nonpayable",
      "type": "function"
    },
    {
      "constant": false,
      "inputs": [],
      "name": "updateDependencies",
      "outputs": [],
      "payable": false,
      "stateMutability": "nonpayable",
      "type": "function"
    },
    {
      "constant": false,
      "inputs": [
        {
          "internalType": "address",
          "name": "receiver",
          "type": "address"
        },
        {
          "internalType": "bytes32",
          "name": "endpoint",
          "type": "bytes32"
        },
        {
          "internalType": "bytes32[]",
          "name": "params",
          "type": "bytes32[]"
        }
      ],
      "name": "passParams",
      "outputs": [],
      "payable": false,
      "stateMutability": "nonpayable",
      "type": "function"
    },
    {
      "constant": false,
      "inputs": [
        {
          "internalType": "address",
          "name": "providerAddress",
          "type": "address"
        },
        {
          "internalType": "bytes32",
          "name": "endpoint",
          "type": "bytes32"
        },
        {
          "internalType": "bytes32[]",
          "name": "endpointParams",
          "type": "bytes32[]"
        },
        {
          "internalType": "uint256",
          "name": "publicKey",
          "type": "uint256"
        },
        {
          "internalType": "uint64",
          "name": "blocks",
          "type": "uint64"
        }
      ],
      "name": "initiateSubscription",
      "outputs": [],
      "payable": false,
      "stateMutability": "nonpayable",
      "type": "function"
    },
    {
      "constant": true,
      "inputs": [
        {
          "internalType": "address",
          "name": "providerAddress",
          "type": "address"
        },
        {
          "internalType": "address",
          "name": "subscriberAddress",
          "type": "address"
        },
        {
          "internalType": "bytes32",
          "name": "endpoint",
          "type": "bytes32"
        }
      ],
      "name": "getSubscription",
      "outputs": [
        {
          "internalType": "uint64",
          "name": "dots",
          "type": "uint64"
        },
        {
          "internalType": "uint96",
          "name": "blockStart",
          "type": "uint96"
        },
        {
          "internalType": "uint96",
          "name": "preBlockEnd",
          "type": "uint96"
        }
      ],
      "payable": false,
      "stateMutability": "view",
      "type": "function"
    },
    {
      "constant": false,
      "inputs": [
        {
          "internalType": "address",
          "name": "subscriberAddress",
          "type": "address"
        },
        {
          "internalType": "bytes32",
          "name": "endpoint",
          "type": "bytes32"
        }
      ],
      "name": "endSubscriptionProvider",
      "outputs": [],
      "payable": false,
      "stateMutability": "nonpayable",
      "type": "function"
    },
    {
      "constant": false,
      "inputs": [
        {
          "internalType": "address",
          "name": "providerAddress",
          "type": "address"
        },
        {
          "internalType": "bytes32",
          "name": "endpoint",
          "type": "bytes32"
        }
      ],
      "name": "endSubscriptionSubscriber",
      "outputs": [],
      "payable": false,
      "stateMutability": "nonpayable",
      "type": "function"
    },
    {
      "constant": true,
      "inputs": [
        {
          "internalType": "address",
          "name": "providerAddress",
          "type": "address"
        },
        {
          "internalType": "address",
          "name": "subscriberAddress",
          "type": "address"
        },
        {
          "internalType": "bytes32",
          "name": "endpoint",
          "type": "bytes32"
        }
      ],
      "name": "getDots",
      "outputs": [
        {
          "internalType": "uint64",
          "name": "",
          "type": "uint64"
        }
      ],
      "payable": false,
      "stateMutability": "view",
      "type": "function"
    },
    {
      "constant": true,
      "inputs": [
        {
          "internalType": "address",
          "name": "providerAddress",
          "type": "address"
        },
        {
          "internalType": "address",
          "name": "subscriberAddress",
          "type": "address"
        },
        {
          "internalType": "bytes32",
          "name": "endpoint",
          "type": "bytes32"
        }
      ],
      "name": "getBlockStart",
      "outputs": [
        {
          "internalType": "uint96",
          "name": "",
          "type": "uint96"
        }
      ],
      "payable": false,
      "stateMutability": "view",
      "type": "function"
    },
    {
      "constant": true,
      "inputs": [
        {
          "internalType": "address",
          "name": "providerAddress",
          "type": "address"
        },
        {
          "internalType": "address",
          "name": "subscriberAddress",
          "type": "address"
        },
        {
          "internalType": "bytes32",
          "name": "endpoint",
          "type": "bytes32"
        }
      ],
      "name": "getPreBlockEnd",
      "outputs": [
        {
          "internalType": "uint96",
          "name": "",
          "type": "uint96"
        }
      ],
      "payable": false,
      "stateMutability": "view",
      "type": "function"
    }
  ],
  "bytecode": "0x60806040523480156200001157600080fd5b506040516200289538038062002895833981810160405260208110156200003757600080fd5b810190808051906020019092919050505080336000806101000a81548173ffffffffffffffffffffffffffffffffffffffff021916908373ffffffffffffffffffffffffffffffffffffffff16021790555080600160006101000a81548173ffffffffffffffffffffffffffffffffffffffff021916908373ffffffffffffffffffffffffffffffffffffffff16021790555080600260006101000a81548173ffffffffffffffffffffffffffffffffffffffff021916908373ffffffffffffffffffffffffffffffffffffffff160217905550506200011c6200012360201b60201c565b50620003d2565b600260009054906101000a900473ffffffffffffffffffffffffffffffffffffffff1673ffffffffffffffffffffffffffffffffffffffff1663358177736040518163ffffffff1660e01b81526004018080602001828103825260078152602001807f424f4e444147450000000000000000000000000000000000000000000000000081525060200191505060206040518083038186803b158015620001c857600080fd5b505afa158015620001dd573d6000803e3d6000fd5b505050506040513d6020811015620001f457600080fd5b8101908080519060200190929190505050600460006101000a81548173ffffffffffffffffffffffffffffffffffffffff021916908373ffffffffffffffffffffffffffffffffffffffff160217905550600460009054906101000a900473ffffffffffffffffffffffffffffffffffffffff16600360006101000a81548173ffffffffffffffffffffffffffffffffffffffff021916908373ffffffffffffffffffffffffffffffffffffffff1602179055506000600260009054906101000a900473ffffffffffffffffffffffffffffffffffffffff1673ffffffffffffffffffffffffffffffffffffffff1663358177736040518163ffffffff1660e01b81526004018080602001828103825260088152602001807f444154414241534500000000000000000000000000000000000000000000000081525060200191505060206040518083038186803b1580156200034f57600080fd5b505afa15801562000364573d6000803e3d6000fd5b505050506040513d60208110156200037b57600080fd5b8101908080519060200190929190505050905080600560006101000a81548173ffffffffffffffffffffffffffffffffffffffff021916908373ffffffffffffffffffffffffffffffffffffffff16021790555050565b6124b380620003e26000396000f3fe608060405234801561001057600080fd5b50600436106100ea5760003560e01c80639c87920a1161008c578063e00dbb4111610066578063e00dbb41146105d7578063e87e69fe14610621578063f2fde38b146106bf578063fb88463014610703576100ea565b80639c87920a146104375780639cb8a26a14610537578063dbe7436414610541576100ea565b80636c526d85116100c85780636c526d85146102255780636dbe08df146103015780636e5ecdff146103e35780638da5cb5b146103ed576100ea565b80633e24a696146100ef5780634d655aff1461018d57806362800bd8146101d7575b600080fd5b61015b6004803603606081101561010557600080fd5b81019080803573ffffffffffffffffffffffffffffffffffffffff169060200190929190803573ffffffffffffffffffffffffffffffffffffffff16906020019092919080359060200190929190505050610751565b60405180826bffffffffffffffffffffffff166bffffffffffffffffffffffff16815260200191505060405180910390f35b6101956108ee565b604051808273ffffffffffffffffffffffffffffffffffffffff1673ffffffffffffffffffffffffffffffffffffffff16815260200191505060405180910390f35b610223600480360360408110156101ed57600080fd5b81019080803573ffffffffffffffffffffffffffffffffffffffff16906020019092919080359060200190929190505050610914565b005b6102916004803603606081101561023b57600080fd5b81019080803573ffffffffffffffffffffffffffffffffffffffff169060200190929190803573ffffffffffffffffffffffffffffffffffffffff1690602001909291908035906020019092919050505061098f565b604051808467ffffffffffffffff1667ffffffffffffffff168152602001836bffffffffffffffffffffffff166bffffffffffffffffffffffff168152602001826bffffffffffffffffffffffff166bffffffffffffffffffffffff168152602001935050505060405180910390f35b6103e16004803603606081101561031757600080fd5b81019080803573ffffffffffffffffffffffffffffffffffffffff169060200190929190803590602001909291908035906020019064010000000081111561035e57600080fd5b82018360208201111561037057600080fd5b8035906020019184602083028401116401000000008311171561039257600080fd5b919080806020026020016040519081016040528093929190818152602001838360200280828437600081840152601f19601f8201169050808301925050505050505091929192905050506109c4565b005b6103eb610a77565b005b6103f5610b44565b604051808273ffffffffffffffffffffffffffffffffffffffff1673ffffffffffffffffffffffffffffffffffffffff16815260200191505060405180910390f35b610535600480360360a081101561044d57600080fd5b81019080803573ffffffffffffffffffffffffffffffffffffffff169060200190929190803590602001909291908035906020019064010000000081111561049457600080fd5b8201836020820111156104a657600080fd5b803590602001918460208302840111640100000000831117156104c857600080fd5b919080806020026020016040519081016040528093929190818152602001838360200280828437600081840152601f19601f82011690508083019250505050505050919291929080359060200190929190803567ffffffffffffffff169060200190929190505050610b69565b005b61053f610e46565b005b6105ad6004803603606081101561055757600080fd5b81019080803573ffffffffffffffffffffffffffffffffffffffff169060200190929190803573ffffffffffffffffffffffffffffffffffffffff16906020019092919080359060200190929190505050610ed9565b604051808267ffffffffffffffff1667ffffffffffffffff16815260200191505060405180910390f35b6105df611076565b604051808273ffffffffffffffffffffffffffffffffffffffff1673ffffffffffffffffffffffffffffffffffffffff16815260200191505060405180910390f35b61068d6004803603606081101561063757600080fd5b81019080803573ffffffffffffffffffffffffffffffffffffffff169060200190929190803573ffffffffffffffffffffffffffffffffffffffff1690602001909291908035906020019092919050505061109c565b60405180826bffffffffffffffffffffffff166bffffffffffffffffffffffff16815260200191505060405180910390f35b610701600480360360208110156106d557600080fd5b81019080803573ffffffffffffffffffffffffffffffffffffffff169060200190929190505050611239565b005b61074f6004803603604081101561071957600080fd5b81019080803573ffffffffffffffffffffffffffffffffffffffff1690602001909291908035906020019092919050505061138a565b005b6000600560009054906101000a900473ffffffffffffffffffffffffffffffffffffffff1673ffffffffffffffffffffffffffffffffffffffff16632ecb0d6485858560405160200180807f737562736372697074696f6e7300000000000000000000000000000000000000815250600d018473ffffffffffffffffffffffffffffffffffffffff1673ffffffffffffffffffffffffffffffffffffffff1660601b81526014018373ffffffffffffffffffffffffffffffffffffffff1673ffffffffffffffffffffffffffffffffffffffff1660601b8152601401828152602001807f626c6f636b537461727400000000000000000000000000000000000000000000815250600a019350505050604051602081830303815290604052805190602001206040518263ffffffff1660e01b81526004018082815260200191505060206040518083038186803b1580156108aa57600080fd5b505afa1580156108be573d6000803e3d6000fd5b505050506040513d60208110156108d457600080fd5b810190808051906020019092919050505090509392505050565b600560009054906101000a900473ffffffffffffffffffffffffffffffffffffffff1681565b61091f823383611406565b1561098b5760018081111561093057fe5b3373ffffffffffffffffffffffffffffffffffffffff168373ffffffffffffffffffffffffffffffffffffffff167fe27dcf9b3b50e7d3af96f88c64ebd7307cdef3359182881bfe7210b42433a44960405160405180910390a45b5050565b600080600061099f868686610ed9565b6109aa878787610751565b6109b588888861109c565b92509250925093509350939050565b8273ffffffffffffffffffffffffffffffffffffffff163373ffffffffffffffffffffffffffffffffffffffff167fd31e849abbddf4d7669b530a73ab91262191fb280906f73316d4830f67f10d7d84846040518083815260200180602001828103825283818151815260200191508051906020019060200280838360005b83811015610a5e578082015181840152602081019050610a43565b50505050905001935050505060405180910390a3505050565b600160009054906101000a900473ffffffffffffffffffffffffffffffffffffffff1673ffffffffffffffffffffffffffffffffffffffff163373ffffffffffffffffffffffffffffffffffffffff1614610b3a576040517f08c379a00000000000000000000000000000000000000000000000000000000081526004018080602001828103825260208152602001807f4572726f723a20436f6f7264696e61746f72204f6e6c792046756e6374696f6e81525060200191505060405180910390fd5b610b42611847565b565b6000809054906101000a900473ffffffffffffffffffffffffffffffffffffffff1681565b60008167ffffffffffffffff1611610bcc576040517f08c379a00000000000000000000000000000000000000000000000000000000081526004018080602001828103825260218152602001806123fd6021913960400191505060405180910390fd5b6000610bd9863387610ed9565b67ffffffffffffffff1614610c39576040517f08c379a00000000000000000000000000000000000000000000000000000000081526004018080602001828103825260378152602001806124486037913960400191505060405180910390fd5b600360009054906101000a900473ffffffffffffffffffffffffffffffffffffffff1673ffffffffffffffffffffffffffffffffffffffff166316614c98338787856040518563ffffffff1660e01b8152600401808573ffffffffffffffffffffffffffffffffffffffff1673ffffffffffffffffffffffffffffffffffffffff1681526020018473ffffffffffffffffffffffffffffffffffffffff1673ffffffffffffffffffffffffffffffffffffffff1681526020018381526020018267ffffffffffffffff168152602001945050505050602060405180830381600087803b158015610d2857600080fd5b505af1158015610d3c573d6000803e3d6000fd5b505050506040513d6020811015610d5257600080fd5b810190808051906020019092919050505050610d7e85338684438667ffffffffffffffff164301611af0565b8067ffffffffffffffff163373ffffffffffffffffffffffffffffffffffffffff168673ffffffffffffffffffffffffffffffffffffffff167f10cd0837c48b7daca59ad3bbdbdc193ea84eea36bfde21b4c4b0960ab41b9f2f8587896040518084815260200180602001838152602001828103825284818151815260200191508051906020019060200280838360005b83811015610e2a578082015181840152602081019050610e0f565b5050505090500194505050505060405180910390a45050505050565b6000809054906101000a900473ffffffffffffffffffffffffffffffffffffffff1673ffffffffffffffffffffffffffffffffffffffff163373ffffffffffffffffffffffffffffffffffffffff1614610e9f57600080fd5b6000809054906101000a900473ffffffffffffffffffffffffffffffffffffffff1673ffffffffffffffffffffffffffffffffffffffff16ff5b6000600560009054906101000a900473ffffffffffffffffffffffffffffffffffffffff1673ffffffffffffffffffffffffffffffffffffffff16632ecb0d6485858560405160200180807f737562736372697074696f6e7300000000000000000000000000000000000000815250600d018473ffffffffffffffffffffffffffffffffffffffff1673ffffffffffffffffffffffffffffffffffffffff1660601b81526014018373ffffffffffffffffffffffffffffffffffffffff1673ffffffffffffffffffffffffffffffffffffffff1660601b8152601401828152602001807f646f7473000000000000000000000000000000000000000000000000000000008152506004019350505050604051602081830303815290604052805190602001206040518263ffffffff1660e01b81526004018082815260200191505060206040518083038186803b15801561103257600080fd5b505afa158015611046573d6000803e3d6000fd5b505050506040513d602081101561105c57600080fd5b810190808051906020019092919050505090509392505050565b600460009054906101000a900473ffffffffffffffffffffffffffffffffffffffff1681565b6000600560009054906101000a900473ffffffffffffffffffffffffffffffffffffffff1673ffffffffffffffffffffffffffffffffffffffff16632ecb0d6485858560405160200180807f737562736372697074696f6e7300000000000000000000000000000000000000815250600d018473ffffffffffffffffffffffffffffffffffffffff1673ffffffffffffffffffffffffffffffffffffffff1660601b81526014018373ffffffffffffffffffffffffffffffffffffffff1673ffffffffffffffffffffffffffffffffffffffff1660601b8152601401828152602001807f707265426c6f636b456e64000000000000000000000000000000000000000000815250600b019350505050604051602081830303815290604052805190602001206040518263ffffffff1660e01b81526004018082815260200191505060206040518083038186803b1580156111f557600080fd5b505afa158015611209573d6000803e3d6000fd5b505050506040513d602081101561121f57600080fd5b810190808051906020019092919050505090509392505050565b6000809054906101000a900473ffffffffffffffffffffffffffffffffffffffff1673ffffffffffffffffffffffffffffffffffffffff163373ffffffffffffffffffffffffffffffffffffffff161461129257600080fd5b600073ffffffffffffffffffffffffffffffffffffffff168173ffffffffffffffffffffffffffffffffffffffff1614156112cc57600080fd5b8073ffffffffffffffffffffffffffffffffffffffff166000809054906101000a900473ffffffffffffffffffffffffffffffffffffffff1673ffffffffffffffffffffffffffffffffffffffff167f8be0079c531659141344cd1fd0a4f28419497f9722a3daafe3b4186f6b6457e060405160405180910390a3806000806101000a81548173ffffffffffffffffffffffffffffffffffffffff021916908373ffffffffffffffffffffffffffffffffffffffff16021790555050565b611395338383611406565b1561140257600060018111156113a757fe5b8273ffffffffffffffffffffffffffffffffffffffff163373ffffffffffffffffffffffffffffffffffffffff167fe27dcf9b3b50e7d3af96f88c64ebd7307cdef3359182881bfe7210b42433a44960405160405180910390a45b5050565b600080611414858585610ed9565b67ffffffffffffffff169050600061142d86868661109c565b6bffffffffffffffffffffffff16905060008211611496576040517f08c379a000000000000000000000000000000000000000000000000000000000815260040180806020018281038252602a81526020018061241e602a913960400191505060405180910390fd5b8043101561170d5760006114ab878787610751565b6bffffffffffffffffffffffff164303905060008184039050600360009054906101000a900473ffffffffffffffffffffffffffffffffffffffff1673ffffffffffffffffffffffffffffffffffffffff16633b058aa7888a89866040518563ffffffff1660e01b8152600401808573ffffffffffffffffffffffffffffffffffffffff1673ffffffffffffffffffffffffffffffffffffffff1681526020018473ffffffffffffffffffffffffffffffffffffffff1673ffffffffffffffffffffffffffffffffffffffff168152602001838152602001828152602001945050505050602060405180830381600087803b1580156115a957600080fd5b505af11580156115bd573d6000803e3d6000fd5b505050506040513d60208110156115d357600080fd5b810190808051906020019092919050505050600360009054906101000a900473ffffffffffffffffffffffffffffffffffffffff1673ffffffffffffffffffffffffffffffffffffffff1663f6dfac25888a89856040518563ffffffff1660e01b8152600401808573ffffffffffffffffffffffffffffffffffffffff1673ffffffffffffffffffffffffffffffffffffffff1681526020018473ffffffffffffffffffffffffffffffffffffffff1673ffffffffffffffffffffffffffffffffffffffff168152602001838152602001828152602001945050505050602060405180830381600087803b1580156116ca57600080fd5b505af11580156116de573d6000803e3d6000fd5b505050506040513d60208110156116f457600080fd5b810190808051906020019092919050505050505061182f565b600360009054906101000a900473ffffffffffffffffffffffffffffffffffffffff1673ffffffffffffffffffffffffffffffffffffffff16633b058aa7868887866040518563ffffffff1660e01b8152600401808573ffffffffffffffffffffffffffffffffffffffff1673ffffffffffffffffffffffffffffffffffffffff1681526020018473ffffffffffffffffffffffffffffffffffffffff1673ffffffffffffffffffffffffffffffffffffffff168152602001838152602001828152602001945050505050602060405180830381600087803b1580156117f257600080fd5b505af1158015611806573d6000803e3d6000fd5b505050506040513d602081101561181c57600080fd5b8101908080519060200190929190505050505b61183a868686611f89565b6001925050509392505050565b600260009054906101000a900473ffffffffffffffffffffffffffffffffffffffff1673ffffffffffffffffffffffffffffffffffffffff1663358177736040518163ffffffff1660e01b81526004018080602001828103825260078152602001807f424f4e444147450000000000000000000000000000000000000000000000000081525060200191505060206040518083038186803b1580156118eb57600080fd5b505afa1580156118ff573d6000803e3d6000fd5b505050506040513d602081101561191557600080fd5b8101908080519060200190929190505050600460006101000a81548173ffffffffffffffffffffffffffffffffffffffff021916908373ffffffffffffffffffffffffffffffffffffffff160217905550600460009054906101000a900473ffffffffffffffffffffffffffffffffffffffff16600360006101000a81548173ffffffffffffffffffffffffffffffffffffffff021916908373ffffffffffffffffffffffffffffffffffffffff1602179055506000600260009054906101000a900473ffffffffffffffffffffffffffffffffffffffff1673ffffffffffffffffffffffffffffffffffffffff1663358177736040518163ffffffff1660e01b81526004018080602001828103825260088152602001807f444154414241534500000000000000000000000000000000000000000000000081525060200191505060206040518083038186803b158015611a6f57600080fd5b505afa158015611a83573d6000803e3d6000fd5b505050506040513d6020811015611a9957600080fd5b8101908080519060200190929190505050905080600560006101000a81548173ffffffffffffffffffffffffffffffffffffffff021916908373ffffffffffffffffffffffffffffffffffffffff16021790555050565b600560009054906101000a900473ffffffffffffffffffffffffffffffffffffffff1673ffffffffffffffffffffffffffffffffffffffff166354c552db87878760405160200180807f737562736372697074696f6e7300000000000000000000000000000000000000815250600d018473ffffffffffffffffffffffffffffffffffffffff1673ffffffffffffffffffffffffffffffffffffffff1660601b81526014018373ffffffffffffffffffffffffffffffffffffffff1673ffffffffffffffffffffffffffffffffffffffff1660601b8152601401828152602001807f646f747300000000000000000000000000000000000000000000000000000000815250600401935050505060405160208183030381529060405280519060200120856040518363ffffffff1660e01b8152600401808381526020018267ffffffffffffffff16815260200192505050600060405180830381600087803b158015611c5b57600080fd5b505af1158015611c6f573d6000803e3d6000fd5b50505050600560009054906101000a900473ffffffffffffffffffffffffffffffffffffffff1673ffffffffffffffffffffffffffffffffffffffff166354c552db87878760405160200180807f737562736372697074696f6e7300000000000000000000000000000000000000815250600d018473ffffffffffffffffffffffffffffffffffffffff1673ffffffffffffffffffffffffffffffffffffffff1660601b81526014018373ffffffffffffffffffffffffffffffffffffffff1673ffffffffffffffffffffffffffffffffffffffff1660601b8152601401828152602001807f626c6f636b537461727400000000000000000000000000000000000000000000815250600a01935050505060405160208183030381529060405280519060200120846bffffffffffffffffffffffff166040518363ffffffff1660e01b81526004018083815260200182815260200192505050600060405180830381600087803b158015611de257600080fd5b505af1158015611df6573d6000803e3d6000fd5b50505050600560009054906101000a900473ffffffffffffffffffffffffffffffffffffffff1673ffffffffffffffffffffffffffffffffffffffff166354c552db87878760405160200180807f737562736372697074696f6e7300000000000000000000000000000000000000815250600d018473ffffffffffffffffffffffffffffffffffffffff1673ffffffffffffffffffffffffffffffffffffffff1660601b81526014018373ffffffffffffffffffffffffffffffffffffffff1673ffffffffffffffffffffffffffffffffffffffff1660601b8152601401828152602001807f707265426c6f636b456e64000000000000000000000000000000000000000000815250600b01935050505060405160208183030381529060405280519060200120836bffffffffffffffffffffffff166040518363ffffffff1660e01b81526004018083815260200182815260200192505050600060405180830381600087803b158015611f6957600080fd5b505af1158015611f7d573d6000803e3d6000fd5b50505050505050505050565b600560009054906101000a900473ffffffffffffffffffffffffffffffffffffffff1673ffffffffffffffffffffffffffffffffffffffff166354c552db84848460405160200180807f737562736372697074696f6e7300000000000000000000000000000000000000815250600d018473ffffffffffffffffffffffffffffffffffffffff1673ffffffffffffffffffffffffffffffffffffffff1660601b81526014018373ffffffffffffffffffffffffffffffffffffffff1673ffffffffffffffffffffffffffffffffffffffff1660601b8152601401828152602001807f646f74730000000000000000000000000000000000000000000000000000000081525060040193505050506040516020818303038152906040528051906020012060006040518363ffffffff1660e01b81526004018083815260200182815260200192505050600060405180830381600087803b1580156120eb57600080fd5b505af11580156120ff573d6000803e3d6000fd5b50505050600560009054906101000a900473ffffffffffffffffffffffffffffffffffffffff1673ffffffffffffffffffffffffffffffffffffffff166354c552db84848460405160200180807f737562736372697074696f6e7300000000000000000000000000000000000000815250600d018473ffffffffffffffffffffffffffffffffffffffff1673ffffffffffffffffffffffffffffffffffffffff1660601b81526014018373ffffffffffffffffffffffffffffffffffffffff1673ffffffffffffffffffffffffffffffffffffffff1660601b8152601401828152602001807f626c6f636b537461727400000000000000000000000000000000000000000000815250600a0193505050506040516020818303038152906040528051906020012060006040518363ffffffff1660e01b81526004018083815260200182815260200192505050600060405180830381600087803b15801561226557600080fd5b505af1158015612279573d6000803e3d6000fd5b50505050600560009054906101000a900473ffffffffffffffffffffffffffffffffffffffff1673ffffffffffffffffffffffffffffffffffffffff166354c552db84848460405160200180807f737562736372697074696f6e7300000000000000000000000000000000000000815250600d018473ffffffffffffffffffffffffffffffffffffffff1673ffffffffffffffffffffffffffffffffffffffff1660601b81526014018373ffffffffffffffffffffffffffffffffffffffff1673ffffffffffffffffffffffffffffffffffffffff1660601b8152601401828152602001807f707265426c6f636b456e64000000000000000000000000000000000000000000815250600b0193505050506040516020818303038152906040528051906020012060006040518363ffffffff1660e01b81526004018083815260200182815260200192505050600060405180830381600087803b1580156123df57600080fd5b505af11580156123f3573d6000803e3d6000fd5b5050505050505056fe4572726f723a204d757374206265206174206c65617374206f6e6520626c6f636b4572726f723a2053756273637269626572206d7573742068617665206120737562736372697074696f6e4572726f723a2043616e6e6f74207265696e7374616e746961746520612063757272656e746c792061637469766520636f6e7472616374a265627a7a7231582004a1c1cc4108ac7238862790640a508ba92c18383f063de99fdeb467bead2aeb64736f6c63430005100032",
  "source": "pragma solidity ^0.5.1;\n// v1.0\n\nimport \"../../lib/ownership/Upgradable.sol\";\nimport \"../../lib/lifecycle/Destructible.sol\";\nimport \"../bondage/BondageInterface.sol\";\nimport \"./ArbiterInterface.sol\";\nimport \"../database/DatabaseInterface.sol\";\n\n\ncontract Arbiter is Destructible, ArbiterInterface, Upgradable {\n    // Called when a data purchase is initiated\n    event DataPurchase(\n        address indexed provider,          // Etheruem address of the provider\n        address indexed subscriber,        // Ethereum address of the subscriber\n        uint256 publicKey,                 // Public key of the subscriber\n        uint256 indexed amount,            // Amount (in 1/100 ZAP) of ethereum sent\n        bytes32[] endpointParams,          // Endpoint specific(nonce,encrypted_uuid),\n        bytes32 endpoint                   // Endpoint specifier\n    );\n\n    // Called when a data subscription is ended by either provider or terminator\n    event DataSubscriptionEnd(\n        address indexed provider,                      // Provider from the subscription\n        address indexed subscriber,                    // Subscriber from the subscription\n        SubscriptionTerminator indexed terminator      // Which terminated the contract\n    );\n\n    // Called when party passes arguments to another party\n    event ParamsPassed(\n        address indexed sender,\n        address indexed receiver,\n        bytes32 endpoint,\n        bytes32[] params\n    );\n\n    // Used to specify who is the terminator of a contract\n    enum SubscriptionTerminator { Provider, Subscriber }\n\n    BondageInterface bondage;\n    address public bondageAddress;\n\n    // database address and reference\n    DatabaseInterface public db;\n\n    constructor(address c) Upgradable(c) public {\n        _updateDependencies();\n    }\n\n    function _updateDependencies() internal {\n        bondageAddress = coordinator.getContract(\"BONDAGE\");\n        bondage = BondageInterface(bondageAddress);\n\n        address databaseAddress = coordinator.getContract(\"DATABASE\");\n        db = DatabaseInterface(databaseAddress);\n    }\n\n    //@dev broadcast parameters from sender to offchain receiver\n    /// @param receiver address\n    /// @param endpoint Endpoint specifier\n    /// @param params arbitrary params to be passed\n    function passParams(address receiver, bytes32 endpoint, bytes32[] memory params) public {\n        emit ParamsPassed(msg.sender, receiver, endpoint, params);\n    }\n\n    /// @dev subscribe to specified number of blocks of provider\n    /// @param providerAddress Provider address\n    /// @param endpoint Endpoint specifier\n    /// @param endpointParams Endpoint specific params\n    /// @param publicKey Public key of the purchaser\n    /// @param blocks Number of blocks subscribed, 1block=1dot\n    function initiateSubscription(\n        address providerAddress,   //\n        bytes32 endpoint,          //\n        bytes32[] memory endpointParams,  //\n        uint256 publicKey,         // Public key of the purchaser\n        uint64 blocks              //\n    )\n        public\n    {\n        // Must be atleast one block\n        require(blocks > 0, \"Error: Must be at least one block\");\n\n        // Can't reinitiate a currently active contract\n        require(getDots(providerAddress, msg.sender, endpoint) == 0, \"Error: Cannot reinstantiate a currently active contract\");\n\n        // Escrow the necessary amount of dots\n        bondage.escrowDots(msg.sender, providerAddress, endpoint, blocks);\n\n        // Initiate the subscription struct\n        setSubscription(\n            providerAddress,\n            msg.sender,\n            endpoint,\n            blocks,\n            uint96(block.number),\n            uint96(block.number) + uint96(blocks)\n        );\n\n        emit DataPurchase(\n            providerAddress,\n            msg.sender,\n            publicKey,\n            blocks,\n            endpointParams,\n            endpoint\n        );\n    }\n\n    /// @dev get subscription info\n    function getSubscription(address providerAddress, address subscriberAddress, bytes32 endpoint)\n        public\n        view\n        returns (uint64 dots, uint96 blockStart, uint96 preBlockEnd)\n    {\n        return (\n            getDots(providerAddress, subscriberAddress, endpoint),\n            getBlockStart(providerAddress, subscriberAddress, endpoint),\n            getPreBlockEnd(providerAddress, subscriberAddress, endpoint)\n        );\n    }\n\n    /// @dev Finish the data feed from the provider\n    function endSubscriptionProvider(\n        address subscriberAddress,\n        bytes32 endpoint\n    )\n        public\n    {\n        // Emit an event on success about who ended the contract\n        if (endSubscription(msg.sender, subscriberAddress, endpoint))\n            emit DataSubscriptionEnd(\n                msg.sender,\n                subscriberAddress,\n                SubscriptionTerminator.Provider\n            );\n    }\n\n    /// @dev Finish the data feed from the subscriber\n    function endSubscriptionSubscriber(\n        address providerAddress,\n        bytes32 endpoint\n    )\n        public\n    {\n        // Emit an event on success about who ended the contract\n        if (endSubscription(providerAddress, msg.sender, endpoint))\n            emit DataSubscriptionEnd(\n                providerAddress,\n                msg.sender,\n                SubscriptionTerminator.Subscriber\n            );\n    }\n\n    /// @dev Finish the data feed\n    function endSubscription(\n        address providerAddress,\n        address subscriberAddress,\n        bytes32 endpoint\n    )\n        private\n        returns (bool)\n    {\n        // get the total value/block length of this subscription\n        uint256 dots = getDots(providerAddress, subscriberAddress, endpoint);\n        uint256 preblockend = getPreBlockEnd(providerAddress, subscriberAddress, endpoint);\n        // Make sure the subscriber has a subscription\n        require(dots > 0, \"Error: Subscriber must have a subscription\");\n\n        if (block.number < preblockend) {\n            // Subscription ended early\n            uint256 earnedDots = block.number - getBlockStart(providerAddress, subscriberAddress, endpoint);\n            uint256 returnedDots = dots - earnedDots;\n\n            // Transfer the earned dots to the provider\n            bondage.releaseDots(\n                subscriberAddress,\n                providerAddress,\n                endpoint,\n                earnedDots\n            );\n            //  Transfer the returned dots to the subscriber\n            bondage.returnDots(\n                subscriberAddress,\n                providerAddress,\n                endpoint,\n                returnedDots\n            );\n        } else {\n            // Transfer all the dots\n            bondage.releaseDots(\n                subscriberAddress,\n                providerAddress,\n                endpoint,\n                dots\n            );\n        }\n        // Kill the subscription\n        deleteSubscription(providerAddress, subscriberAddress, endpoint);\n        return true;\n    }\n\n\n    /*** --- *** STORAGE METHODS *** --- ***/\n\n    /// @dev get subscriber dots remaining for specified provider endpoint\n    function getDots(\n        address providerAddress,\n        address subscriberAddress,\n        bytes32 endpoint\n    )\n        public\n        view\n        returns (uint64)\n    {\n        return uint64(db.getNumber(keccak256(abi.encodePacked('subscriptions', providerAddress, subscriberAddress, endpoint, 'dots'))));\n    }\n\n    /// @dev get first subscription block number\n    function getBlockStart(\n        address providerAddress,\n        address subscriberAddress,\n        bytes32 endpoint\n    )\n        public\n        view\n        returns (uint96)\n    {\n        return uint96(db.getNumber(keccak256(abi.encodePacked('subscriptions', providerAddress, subscriberAddress, endpoint, 'blockStart'))));\n    }\n\n    /// @dev get last subscription block number\n    function getPreBlockEnd(\n        address providerAddress,\n        address subscriberAddress,\n        bytes32 endpoint\n    )\n        public\n        view\n        returns (uint96)\n    {\n        return uint96(db.getNumber(keccak256(abi.encodePacked('subscriptions', providerAddress, subscriberAddress, endpoint, 'preBlockEnd'))));\n    }\n\n    /**** Set Methods ****/\n\n    /// @dev store new subscription\n    function setSubscription(\n        address providerAddress,\n        address subscriberAddress,\n        bytes32 endpoint,\n        uint64 dots,\n        uint96 blockStart,\n        uint96 preBlockEnd\n    )\n        private\n    {\n        db.setNumber(keccak256(abi.encodePacked('subscriptions', providerAddress, subscriberAddress, endpoint, 'dots')), dots);\n        db.setNumber(keccak256(abi.encodePacked('subscriptions', providerAddress, subscriberAddress, endpoint, 'blockStart')), uint256(blockStart));\n        db.setNumber(keccak256(abi.encodePacked('subscriptions', providerAddress, subscriberAddress, endpoint, 'preBlockEnd')), uint256(preBlockEnd));\n    }\n\n    /**** Delete Methods ****/\n\n    /// @dev remove subscription\n    function deleteSubscription(\n        address providerAddress,\n        address subscriberAddress,\n        bytes32 endpoint\n    )\n        private\n    {\n        db.setNumber(keccak256(abi.encodePacked('subscriptions', providerAddress, subscriberAddress, endpoint, 'dots')), 0);\n        db.setNumber(keccak256(abi.encodePacked('subscriptions', providerAddress, subscriberAddress, endpoint, 'blockStart')), uint256(0));\n        db.setNumber(keccak256(abi.encodePacked('subscriptions', providerAddress, subscriberAddress, endpoint, 'preBlockEnd')), uint256(0));\n    }\n}\n\n    /*************************************** STORAGE ****************************************\n    * 'holders', holderAddress, 'initialized', oracleAddress => {uint256} 1 -> provider-subscriber initialized, 0 -> not initialized\n    * 'holders', holderAddress, 'bonds', oracleAddress, endpoint => {uint256} number of dots this address has bound to this endpoint\n    * 'oracles', oracleAddress, endpoint, 'broker' => {address} address of endpoint broker, 0 if none\n    * 'escrow', holderAddress, oracleAddress, endpoint => {uint256} amount of Zap that have been escrowed\n    * 'totalBound', oracleAddress, endpoint => {uint256} amount of Zap bound to this endpoint\n    * 'totalIssued', oracleAddress, endpoint => {uint256} number of dots issued by this endpoint\n    * 'holders', holderAddress, 'oracleList' => {address[]} array of oracle addresses associated with this holder\n    ****************************************************************************************/\n",
  "sourcePath": "/home/adoo/jzap/contracts/platform/arbiter/Arbiter.sol",
  "compiler": {
    "name": "solc",
    "version": "0.5.16+commit.9c3226ce.Emscripten.clang"
  },
  "schemaVersion": "3.3.3",
  "updatedAt": "2021-01-27T20:42:21.855Z",
  "devdoc": {
    "methods": {
      "endSubscriptionProvider(address,bytes32)": {
        "details": "Finish the data feed from the provider"
      },
      "endSubscriptionSubscriber(address,bytes32)": {
        "details": "Finish the data feed from the subscriber"
      },
      "getBlockStart(address,address,bytes32)": {
        "details": "get first subscription block number"
      },
      "getDots(address,address,bytes32)": {
        "details": "get subscriber dots remaining for specified provider endpoint"
      },
      "getPreBlockEnd(address,address,bytes32)": {
        "details": "get last subscription block number"
      },
      "getSubscription(address,address,bytes32)": {
        "details": "get subscription info"
      },
      "initiateSubscription(address,bytes32,bytes32[],uint256,uint64)": {
        "details": "subscribe to specified number of blocks of provider",
        "params": {
          "blocks": "Number of blocks subscribed, 1block=1dot",
          "endpoint": "Endpoint specifier",
          "endpointParams": "Endpoint specific params",
          "providerAddress": "Provider address",
          "publicKey": "Public key of the purchaser"
        }
      },
      "passParams(address,bytes32,bytes32[])": {
        "params": {
          "endpoint": "Endpoint specifier",
          "params": "arbitrary params to be passed",
          "receiver": "address"
        }
      },
      "transferOwnership(address)": {
        "details": "Allows the current owner to transfer control of the contract to a newOwner.",
        "params": {
          "newOwner": "The address to transfer ownership to."
        }
      }
    }
  },
  "userdoc": {
    "methods": {}
  }
}