{
  "contractName": "Database",
  "abi": [
    {
      "anonymous": false,
      "inputs": [
        {
          "indexed": true,
          "internalType": "address",
          "name": "previousOwner",
          "type": "address"
        },
        {
          "indexed": true,
          "internalType": "address",
          "name": "newOwner",
          "type": "address"
        }
      ],
      "name": "OwnershipTransferred",
      "type": "event"
    },
    {
      "anonymous": false,
      "inputs": [
        {
          "indexed": true,
          "internalType": "address",
          "name": "contractAddress",
          "type": "address"
        },
        {
          "indexed": false,
          "internalType": "bool",
          "name": "allowed",
          "type": "bool"
        }
      ],
      "name": "StorageModified",
      "type": "event"
    },
    {
      "constant": true,
      "inputs": [],
      "name": "owner",
      "outputs": [
        {
          "internalType": "address payable",
          "name": "",
          "type": "address"
        }
      ],
      "payable": false,
      "stateMutability": "view",
      "type": "function"
    },
    {
      "constant": false,
      "inputs": [
        {
          "internalType": "address payable",
          "name": "newOwner",
          "type": "address"
        }
      ],
      "name": "transferOwnership",
      "outputs": [],
      "payable": false,
      "stateMutability": "nonpayable",
      "type": "function"
    },
    {
      "constant": false,
      "inputs": [
        {
          "internalType": "address",
          "name": "_storageContract",
          "type": "address"
        },
        {
          "internalType": "bool",
          "name": "_allowed",
          "type": "bool"
        }
      ],
      "name": "setStorageContract",
      "outputs": [],
      "payable": false,
      "stateMutability": "nonpayable",
      "type": "function"
    },
    {
      "constant": true,
      "inputs": [
        {
          "internalType": "bytes32",
          "name": "key",
          "type": "bytes32"
        }
      ],
      "name": "getBytes32",
      "outputs": [
        {
          "internalType": "bytes32",
          "name": "",
          "type": "bytes32"
        }
      ],
      "payable": false,
      "stateMutability": "view",
      "type": "function"
    },
    {
      "constant": false,
      "inputs": [
        {
          "internalType": "bytes32",
          "name": "key",
          "type": "bytes32"
        },
        {
          "internalType": "bytes32",
          "name": "value",
          "type": "bytes32"
        }
      ],
      "name": "setBytes32",
      "outputs": [],
      "payable": false,
      "stateMutability": "nonpayable",
      "type": "function"
    },
    {
      "constant": true,
      "inputs": [
        {
          "internalType": "bytes32",
          "name": "key",
          "type": "bytes32"
        }
      ],
      "name": "getNumber",
      "outputs": [
        {
          "internalType": "uint256",
          "name": "",
          "type": "uint256"
        }
      ],
      "payable": false,
      "stateMutability": "view",
      "type": "function"
    },
    {
      "constant": false,
      "inputs": [
        {
          "internalType": "bytes32",
          "name": "key",
          "type": "bytes32"
        },
        {
          "internalType": "uint256",
          "name": "value",
          "type": "uint256"
        }
      ],
      "name": "setNumber",
      "outputs": [],
      "payable": false,
      "stateMutability": "nonpayable",
      "type": "function"
    },
    {
      "constant": true,
      "inputs": [
        {
          "internalType": "bytes32",
          "name": "key",
          "type": "bytes32"
        }
      ],
      "name": "getBytes",
      "outputs": [
        {
          "internalType": "bytes",
          "name": "",
          "type": "bytes"
        }
      ],
      "payable": false,
      "stateMutability": "view",
      "type": "function"
    },
    {
      "constant": false,
      "inputs": [
        {
          "internalType": "bytes32",
          "name": "key",
          "type": "bytes32"
        },
        {
          "internalType": "bytes",
          "name": "value",
          "type": "bytes"
        }
      ],
      "name": "setBytes",
      "outputs": [],
      "payable": false,
      "stateMutability": "nonpayable",
      "type": "function"
    },
    {
      "constant": true,
      "inputs": [
        {
          "internalType": "bytes32",
          "name": "key",
          "type": "bytes32"
        }
      ],
      "name": "getString",
      "outputs": [
        {
          "internalType": "string",
          "name": "",
          "type": "string"
        }
      ],
      "payable": false,
      "stateMutability": "view",
      "type": "function"
    },
    {
      "constant": false,
      "inputs": [
        {
          "internalType": "bytes32",
          "name": "key",
          "type": "bytes32"
        },
        {
          "internalType": "string",
          "name": "value",
          "type": "string"
        }
      ],
      "name": "setString",
      "outputs": [],
      "payable": false,
      "stateMutability": "nonpayable",
      "type": "function"
    },
    {
      "constant": true,
      "inputs": [
        {
          "internalType": "bytes32",
          "name": "key",
          "type": "bytes32"
        }
      ],
      "name": "getBytesArray",
      "outputs": [
        {
          "internalType": "bytes32[]",
          "name": "",
          "type": "bytes32[]"
        }
      ],
      "payable": false,
      "stateMutability": "view",
      "type": "function"
    },
    {
      "constant": true,
      "inputs": [
        {
          "internalType": "bytes32",
          "name": "key",
          "type": "bytes32"
        },
        {
          "internalType": "uint256",
          "name": "index",
          "type": "uint256"
        }
      ],
      "name": "getBytesArrayIndex",
      "outputs": [
        {
          "internalType": "bytes32",
          "name": "",
          "type": "bytes32"
        }
      ],
      "payable": false,
      "stateMutability": "view",
      "type": "function"
    },
    {
      "constant": true,
      "inputs": [
        {
          "internalType": "bytes32",
          "name": "key",
          "type": "bytes32"
        }
      ],
      "name": "getBytesArrayLength",
      "outputs": [
        {
          "internalType": "uint256",
          "name": "",
          "type": "uint256"
        }
      ],
      "payable": false,
      "stateMutability": "view",
      "type": "function"
    },
    {
      "constant": false,
      "inputs": [
        {
          "internalType": "bytes32",
          "name": "key",
          "type": "bytes32"
        },
        {
          "internalType": "bytes32",
          "name": "value",
          "type": "bytes32"
        }
      ],
      "name": "pushBytesArray",
      "outputs": [],
      "payable": false,
      "stateMutability": "nonpayable",
      "type": "function"
    },
    {
      "constant": false,
      "inputs": [
        {
          "internalType": "bytes32",
          "name": "key",
          "type": "bytes32"
        },
        {
          "internalType": "uint256",
          "name": "index",
          "type": "uint256"
        },
        {
          "internalType": "bytes32",
          "name": "value",
          "type": "bytes32"
        }
      ],
      "name": "setBytesArrayIndex",
      "outputs": [],
      "payable": false,
      "stateMutability": "nonpayable",
      "type": "function"
    },
    {
      "constant": false,
      "inputs": [
        {
          "internalType": "bytes32",
          "name": "key",
          "type": "bytes32"
        },
        {
          "internalType": "bytes32[]",
          "name": "value",
          "type": "bytes32[]"
        }
      ],
      "name": "setBytesArray",
      "outputs": [],
      "payable": false,
      "stateMutability": "nonpayable",
      "type": "function"
    },
    {
      "constant": true,
      "inputs": [
        {
          "internalType": "bytes32",
          "name": "key",
          "type": "bytes32"
        }
      ],
      "name": "getIntArray",
      "outputs": [
        {
          "internalType": "int256[]",
          "name": "",
          "type": "int256[]"
        }
      ],
      "payable": false,
      "stateMutability": "view",
      "type": "function"
    },
    {
      "constant": true,
      "inputs": [
        {
          "internalType": "bytes32",
          "name": "key",
          "type": "bytes32"
        },
        {
          "internalType": "uint256",
          "name": "index",
          "type": "uint256"
        }
      ],
      "name": "getIntArrayIndex",
      "outputs": [
        {
          "internalType": "int256",
          "name": "",
          "type": "int256"
        }
      ],
      "payable": false,
      "stateMutability": "view",
      "type": "function"
    },
    {
      "constant": true,
      "inputs": [
        {
          "internalType": "bytes32",
          "name": "key",
          "type": "bytes32"
        }
      ],
      "name": "getIntArrayLength",
      "outputs": [
        {
          "internalType": "uint256",
          "name": "",
          "type": "uint256"
        }
      ],
      "payable": false,
      "stateMutability": "view",
      "type": "function"
    },
    {
      "constant": false,
      "inputs": [
        {
          "internalType": "bytes32",
          "name": "key",
          "type": "bytes32"
        },
        {
          "internalType": "int256",
          "name": "value",
          "type": "int256"
        }
      ],
      "name": "pushIntArray",
      "outputs": [],
      "payable": false,
      "stateMutability": "nonpayable",
      "type": "function"
    },
    {
      "constant": false,
      "inputs": [
        {
          "internalType": "bytes32",
          "name": "key",
          "type": "bytes32"
        },
        {
          "internalType": "uint256",
          "name": "index",
          "type": "uint256"
        },
        {
          "internalType": "int256",
          "name": "value",
          "type": "int256"
        }
      ],
      "name": "setIntArrayIndex",
      "outputs": [],
      "payable": false,
      "stateMutability": "nonpayable",
      "type": "function"
    },
    {
      "constant": false,
      "inputs": [
        {
          "internalType": "bytes32",
          "name": "key",
          "type": "bytes32"
        },
        {
          "internalType": "int256[]",
          "name": "value",
          "type": "int256[]"
        }
      ],
      "name": "setIntArray",
      "outputs": [],
      "payable": false,
      "stateMutability": "nonpayable",
      "type": "function"
    },
    {
      "constant": true,
      "inputs": [
        {
          "internalType": "bytes32",
          "name": "key",
          "type": "bytes32"
        }
      ],
      "name": "getAddressArray",
      "outputs": [
        {
          "internalType": "address[]",
          "name": "",
          "type": "address[]"
        }
      ],
      "payable": false,
      "stateMutability": "view",
      "type": "function"
    },
    {
      "constant": true,
      "inputs": [
        {
          "internalType": "bytes32",
          "name": "key",
          "type": "bytes32"
        },
        {
          "internalType": "uint256",
          "name": "index",
          "type": "uint256"
        }
      ],
      "name": "getAddressArrayIndex",
      "outputs": [
        {
          "internalType": "address",
          "name": "",
          "type": "address"
        }
      ],
      "payable": false,
      "stateMutability": "view",
      "type": "function"
    },
    {
      "constant": true,
      "inputs": [
        {
          "internalType": "bytes32",
          "name": "key",
          "type": "bytes32"
        }
      ],
      "name": "getAddressArrayLength",
      "outputs": [
        {
          "internalType": "uint256",
          "name": "",
          "type": "uint256"
        }
      ],
      "payable": false,
      "stateMutability": "view",
      "type": "function"
    },
    {
      "constant": false,
      "inputs": [
        {
          "internalType": "bytes32",
          "name": "key",
          "type": "bytes32"
        },
        {
          "internalType": "address",
          "name": "value",
          "type": "address"
        }
      ],
      "name": "pushAddressArray",
      "outputs": [],
      "payable": false,
      "stateMutability": "nonpayable",
      "type": "function"
    },
    {
      "constant": false,
      "inputs": [
        {
          "internalType": "bytes32",
          "name": "key",
          "type": "bytes32"
        },
        {
          "internalType": "uint256",
          "name": "index",
          "type": "uint256"
        },
        {
          "internalType": "address",
          "name": "value",
          "type": "address"
        }
      ],
      "name": "setAddressArrayIndex",
      "outputs": [],
      "payable": false,
      "stateMutability": "nonpayable",
      "type": "function"
    },
    {
      "constant": false,
      "inputs": [
        {
          "internalType": "bytes32",
          "name": "key",
          "type": "bytes32"
        },
        {
          "internalType": "address[]",
          "name": "value",
          "type": "address[]"
        }
      ],
      "name": "setAddressArray",
      "outputs": [],
      "payable": false,
      "stateMutability": "nonpayable",
      "type": "function"
    }
  ],
  "bytecode": "0x6080604052336000806101000a81548173ffffffffffffffffffffffffffffffffffffffff021916908373ffffffffffffffffffffffffffffffffffffffff160217905550611fcd806100536000396000f3fe608060405234801561001057600080fd5b50600436106101cf5760003560e01c80638d152d7811610104578063a4f63ec8116100a2578063dd151d1e11610071578063dd151d1e14610aef578063e16e934014610b3d578063ec672cf614610bb5578063f2fde38b14610c38576101cf565b8063a4f63ec814610941578063a6ed563e14610983578063a9fcf76b146109c5578063c031a18014610a48576101cf565b8063986e791a116100de578063986e791a146107bc578063a21a65ae14610863578063a2987245146108a5578063a42b6bf1146108f1576101cf565b80638d152d78146106b75780638da5cb5b146106ef5780638db0e83b14610739576101cf565b80634e91db08116101715780635948f7331161014b5780635948f7331461050d5780635eca2aeb146105905780636e899550146105dc57806387ddf6cd1461065f576101cf565b80634e91db081461041a57806354c552db1461045257806356e5cf2e1461048a576101cf565b80632e28d084116101ad5780632e28d084146102d15780632ecb0d64146103545780632fc94ba61461039657806343cb0af7146103d8576101cf565b80630dd63ba3146101d45780631b929940146102165780632d2899b61461024e575b600080fd5b610214600480360360608110156101ea57600080fd5b81019080803590602001909291908035906020019092919080359060200190929190505050610c7c565b005b61024c6004803603604081101561022c57600080fd5b810190808035906020019092919080359060200190929190505050610d50565b005b61027a6004803603602081101561026457600080fd5b8101908080359060200190929190505050610d91565b6040518080602001828103825283818151815260200191508051906020019060200280838360005b838110156102bd5780820151818401526020810190506102a2565b505050509050019250505060405180910390f35b610352600480360360408110156102e757600080fd5b81019080803590602001909291908035906020019064010000000081111561030e57600080fd5b82018360208201111561032057600080fd5b8035906020019184600183028401116401000000008311171561034257600080fd5b9091929391929390505050610dfc565b005b6103806004803603602081101561036a57600080fd5b8101908080359060200190929190505050610ec6565b6040518082815260200191505060405180910390f35b6103c2600480360360208110156103ac57600080fd5b8101908080359060200190929190505050610ee6565b6040518082815260200191505060405180910390f35b610404600480360360208110156103ee57600080fd5b8101908080359060200190929190505050610f06565b6040518082815260200191505060405180910390f35b6104506004803603604081101561043057600080fd5b810190808035906020019092919080359060200190929190505050610f26565b005b6104886004803603604081101561046857600080fd5b810190808035906020019092919080359060200190929190505050610fe4565b005b61050b600480360360408110156104a057600080fd5b8101908080359060200190929190803590602001906401000000008111156104c757600080fd5b8201836020820111156104d957600080fd5b803590602001918460208302840111640100000000831117156104fb57600080fd5b90919293919293905050506110a5565b005b6105396004803603602081101561052357600080fd5b810190808035906020019092919050505061116f565b6040518080602001828103825283818151815260200191508051906020019060200280838360005b8381101561057c578082015181840152602081019050610561565b505050509050019250505060405180910390f35b6105c6600480360360408110156105a657600080fd5b810190808035906020019092919080359060200190929190505050611210565b6040518082815260200191505060405180910390f35b61065d600480360360408110156105f257600080fd5b81019080803590602001909291908035906020019064010000000081111561061957600080fd5b82018360208201111561062b57600080fd5b8035906020019184600183028401116401000000008311171561064d57600080fd5b9091929391929390505050611243565b005b6106b56004803603606081101561067557600080fd5b810190808035906020019092919080359060200190929190803573ffffffffffffffffffffffffffffffffffffffff16906020019092919050505061130d565b005b6106ed600480360360408110156106cd57600080fd5b81019080803590602001909291908035906020019092919050505061141b565b005b6106f761145c565b604051808273ffffffffffffffffffffffffffffffffffffffff1673ffffffffffffffffffffffffffffffffffffffff16815260200191505060405180910390f35b6107656004803603602081101561074f57600080fd5b8101908080359060200190929190505050611481565b6040518080602001828103825283818151815260200191508051906020019060200280838360005b838110156107a857808201518184015260208101905061078d565b505050509050019250505060405180910390f35b6107e8600480360360208110156107d257600080fd5b81019080803590602001909291905050506114ec565b6040518080602001828103825283818151815260200191508051906020019080838360005b8381101561082857808201518184015260208101905061080d565b50505050905090810190601f1680156108555780820380516001836020036101000a031916815260200191505b509250505060405180910390f35b61088f6004803603602081101561087957600080fd5b81019080803590602001909291905050506115a1565b6040518082815260200191505060405180910390f35b6108db600480360360408110156108bb57600080fd5b8101908080359060200190929190803590602001909291905050506115c1565b6040518082815260200191505060405180910390f35b61093f6004803603604081101561090757600080fd5b81019080803573ffffffffffffffffffffffffffffffffffffffff1690602001909291908035151590602001909291905050506115f4565b005b6109816004803603606081101561095757600080fd5b81019080803590602001909291908035906020019092919080359060200190929190505050611780565b005b6109af6004803603602081101561099957600080fd5b8101908080359060200190929190505050611854565b6040518082815260200191505060405180910390f35b610a46600480360360408110156109db57600080fd5b810190808035906020019092919080359060200190640100000000811115610a0257600080fd5b820183602082011115610a1457600080fd5b80359060200191846020830284011164010000000083111715610a3657600080fd5b9091929391929390505050611871565b005b610a7460048036036020811015610a5e57600080fd5b810190808035906020019092919050505061193b565b6040518080602001828103825283818151815260200191508051906020019080838360005b83811015610ab4578082015181840152602081019050610a99565b50505050905090810190601f168015610ae15780820380516001836020036101000a031916815260200191505b509250505060405180910390f35b610b3b60048036036040811015610b0557600080fd5b8101908080359060200190929190803573ffffffffffffffffffffffffffffffffffffffff1690602001909291905050506119f0565b005b610b7360048036036040811015610b5357600080fd5b810190808035906020019092919080359060200190929190505050611a6b565b604051808273ffffffffffffffffffffffffffffffffffffffff1673ffffffffffffffffffffffffffffffffffffffff16815260200191505060405180910390f35b610c3660048036036040811015610bcb57600080fd5b810190808035906020019092919080359060200190640100000000811115610bf257600080fd5b820183602082011115610c0457600080fd5b80359060200191846020830284011164010000000083111715610c2657600080fd5b9091929391929390505050611abe565b005b610c7a60048036036020811015610c4e57600080fd5b81019080803573ffffffffffffffffffffffffffffffffffffffff169060200190929190505050611b88565b005b600660003373ffffffffffffffffffffffffffffffffffffffff1673ffffffffffffffffffffffffffffffffffffffff16815260200190815260200160002060009054906101000a900460ff16610d1e576040517f08c379a0000000000000000000000000000000000000000000000000000000008152600401808060200182810382526024815260200180611f466024913960400191505060405180910390fd5b80600460008581526020019081526020016000208381548110610d3d57fe5b9060005260206000200181905550505050565b600460008381526020019081526020016000208190806001815401808255809150509060018203906000526020600020016000909192909190915055505050565b606060046000838152602001908152602001600020805480602002602001604051908101604052809291908181526020018280548015610df057602002820191906000526020600020905b815481526020019060010190808311610ddc575b50505050509050919050565b600660003373ffffffffffffffffffffffffffffffffffffffff1673ffffffffffffffffffffffffffffffffffffffff16815260200190815260200160002060009054906101000a900460ff16610e9e576040517f08c379a0000000000000000000000000000000000000000000000000000000008152600401808060200182810382526024815260200180611f466024913960400191505060405180910390fd5b8181600260008681526020019081526020016000209190610ec0929190611cd9565b50505050565b6000600160008381526020019081526020016000205460001c9050919050565b600060056000838152602001908152602001600020805490509050919050565b600060036000838152602001908152602001600020805490509050919050565b600660003373ffffffffffffffffffffffffffffffffffffffff1673ffffffffffffffffffffffffffffffffffffffff16815260200190815260200160002060009054906101000a900460ff16610fc8576040517f08c379a0000000000000000000000000000000000000000000000000000000008152600401808060200182810382526024815260200180611f466024913960400191505060405180910390fd5b8060016000848152602001908152602001600020819055505050565b600660003373ffffffffffffffffffffffffffffffffffffffff1673ffffffffffffffffffffffffffffffffffffffff16815260200190815260200160002060009054906101000a900460ff16611086576040517f08c379a0000000000000000000000000000000000000000000000000000000008152600401808060200182810382526024815260200180611f466024913960400191505060405180910390fd5b8060001b60016000848152602001908152602001600020819055505050565b600660003373ffffffffffffffffffffffffffffffffffffffff1673ffffffffffffffffffffffffffffffffffffffff16815260200190815260200160002060009054906101000a900460ff16611147576040517f08c379a0000000000000000000000000000000000000000000000000000000008152600401808060200182810382526024815260200180611f466024913960400191505060405180910390fd5b8181600360008681526020019081526020016000209190611169929190611d59565b50505050565b60606005600083815260200190815260200160002080548060200260200160405190810160405280929190818152602001828054801561120457602002820191906000526020600020905b8160009054906101000a900473ffffffffffffffffffffffffffffffffffffffff1673ffffffffffffffffffffffffffffffffffffffff16815260200190600101908083116111ba575b50505050509050919050565b600060036000848152602001908152602001600020828154811061123057fe5b9060005260206000200154905092915050565b600660003373ffffffffffffffffffffffffffffffffffffffff1673ffffffffffffffffffffffffffffffffffffffff16815260200190815260200160002060009054906101000a900460ff166112e5576040517f08c379a0000000000000000000000000000000000000000000000000000000008152600401808060200182810382526024815260200180611f466024913960400191505060405180910390fd5b8181600260008681526020019081526020016000209190611307929190611cd9565b50505050565b600660003373ffffffffffffffffffffffffffffffffffffffff1673ffffffffffffffffffffffffffffffffffffffff16815260200190815260200160002060009054906101000a900460ff166113af576040517f08c379a0000000000000000000000000000000000000000000000000000000008152600401808060200182810382526024815260200180611f466024913960400191505060405180910390fd5b806005600085815260200190815260200160002083815481106113ce57fe5b9060005260206000200160006101000a81548173ffffffffffffffffffffffffffffffffffffffff021916908373ffffffffffffffffffffffffffffffffffffffff160217905550505050565b600360008381526020019081526020016000208190806001815401808255809150509060018203906000526020600020016000909192909190915055505050565b6000809054906101000a900473ffffffffffffffffffffffffffffffffffffffff1681565b6060600360008381526020019081526020016000208054806020026020016040519081016040528092919081815260200182805480156114e057602002820191906000526020600020905b8154815260200190600101908083116114cc575b50505050509050919050565b6060600260008381526020019081526020016000208054600181600116156101000203166002900480601f0160208091040260200160405190810160405280929190818152602001828054600181600116156101000203166002900480156115955780601f1061156a57610100808354040283529160200191611595565b820191906000526020600020905b81548152906001019060200180831161157857829003601f168201915b50505050509050919050565b600060046000838152602001908152602001600020805490509050919050565b60006004600084815260200190815260200160002082815481106115e157fe5b9060005260206000200154905092915050565b6000809054906101000a900473ffffffffffffffffffffffffffffffffffffffff1673ffffffffffffffffffffffffffffffffffffffff163373ffffffffffffffffffffffffffffffffffffffff161461164d57600080fd5b600073ffffffffffffffffffffffffffffffffffffffff168273ffffffffffffffffffffffffffffffffffffffff1614156116d3576040517f08c379a000000000000000000000000000000000000000000000000000000000815260040180806020018281038252602f815260200180611f6a602f913960400191505060405180910390fd5b80600660008473ffffffffffffffffffffffffffffffffffffffff1673ffffffffffffffffffffffffffffffffffffffff16815260200190815260200160002060006101000a81548160ff0219169083151502179055508173ffffffffffffffffffffffffffffffffffffffff167fc139d49f05d574c44ade2e84d6e5ddbab8d65a476d7244af01a64b247788c29782604051808215151515815260200191505060405180910390a25050565b600660003373ffffffffffffffffffffffffffffffffffffffff1673ffffffffffffffffffffffffffffffffffffffff16815260200190815260200160002060009054906101000a900460ff16611822576040517f08c379a0000000000000000000000000000000000000000000000000000000008152600401808060200182810382526024815260200180611f466024913960400191505060405180910390fd5b8060036000858152602001908152602001600020838154811061184157fe5b9060005260206000200181905550505050565b600060016000838152602001908152602001600020549050919050565b600660003373ffffffffffffffffffffffffffffffffffffffff1673ffffffffffffffffffffffffffffffffffffffff16815260200190815260200160002060009054906101000a900460ff16611913576040517f08c379a0000000000000000000000000000000000000000000000000000000008152600401808060200182810382526024815260200180611f466024913960400191505060405180910390fd5b8181600460008681526020019081526020016000209190611935929190611da6565b50505050565b6060600260008381526020019081526020016000208054600181600116156101000203166002900480601f0160208091040260200160405190810160405280929190818152602001828054600181600116156101000203166002900480156119e45780601f106119b9576101008083540402835291602001916119e4565b820191906000526020600020905b8154815290600101906020018083116119c757829003601f168201915b50505050509050919050565b600560008381526020019081526020016000208190806001815401808255809150509060018203906000526020600020016000909192909190916101000a81548173ffffffffffffffffffffffffffffffffffffffff021916908373ffffffffffffffffffffffffffffffffffffffff160217905550505050565b6000600560008481526020019081526020016000208281548110611a8b57fe5b9060005260206000200160009054906101000a900473ffffffffffffffffffffffffffffffffffffffff16905092915050565b600660003373ffffffffffffffffffffffffffffffffffffffff1673ffffffffffffffffffffffffffffffffffffffff16815260200190815260200160002060009054906101000a900460ff16611b60576040517f08c379a0000000000000000000000000000000000000000000000000000000008152600401808060200182810382526024815260200180611f466024913960400191505060405180910390fd5b8181600560008681526020019081526020016000209190611b82929190611df3565b50505050565b6000809054906101000a900473ffffffffffffffffffffffffffffffffffffffff1673ffffffffffffffffffffffffffffffffffffffff163373ffffffffffffffffffffffffffffffffffffffff1614611be157600080fd5b600073ffffffffffffffffffffffffffffffffffffffff168173ffffffffffffffffffffffffffffffffffffffff161415611c1b57600080fd5b8073ffffffffffffffffffffffffffffffffffffffff166000809054906101000a900473ffffffffffffffffffffffffffffffffffffffff1673ffffffffffffffffffffffffffffffffffffffff167f8be0079c531659141344cd1fd0a4f28419497f9722a3daafe3b4186f6b6457e060405160405180910390a3806000806101000a81548173ffffffffffffffffffffffffffffffffffffffff021916908373ffffffffffffffffffffffffffffffffffffffff16021790555050565b828054600181600116156101000203166002900490600052602060002090601f016020900481019282601f10611d1a57803560ff1916838001178555611d48565b82800160010185558215611d48579182015b82811115611d47578235825591602001919060010190611d2c565b5b509050611d559190611e93565b5090565b828054828255906000526020600020908101928215611d95579160200282015b82811115611d94578235825591602001919060010190611d79565b5b509050611da29190611eb8565b5090565b828054828255906000526020600020908101928215611de2579160200282015b82811115611de1578235825591602001919060010190611dc6565b5b509050611def9190611edd565b5090565b828054828255906000526020600020908101928215611e82579160200282015b82811115611e8157823573ffffffffffffffffffffffffffffffffffffffff168260006101000a81548173ffffffffffffffffffffffffffffffffffffffff021916908373ffffffffffffffffffffffffffffffffffffffff16021790555091602001919060010190611e13565b5b509050611e8f9190611f02565b5090565b611eb591905b80821115611eb1576000816000905550600101611e99565b5090565b90565b611eda91905b80821115611ed6576000816000905550600101611ebe565b5090565b90565b611eff91905b80821115611efb576000816000905550600101611ee3565b5090565b90565b611f4291905b80821115611f3e57600081816101000a81549073ffffffffffffffffffffffffffffffffffffffff021916905550600101611f08565b5090565b9056fe4572726f723a20416363657373206e6f7420616c6c6f77656420746f2073746f726167654572726f723a2041646472657373207a65726f20697320696e76616c69642073746f7261676520636f6e7472616374a265627a7a72315820680c43a0c2efd54bad205ba9985926495cb3a370051e3ccd89744b8588d8fe4464736f6c63430005100032",
  "source": "pragma solidity ^0.5.1;\n\nimport \"./DatabaseInterface.sol\";\nimport \"../../lib/ownership/Ownable.sol\";\n\ncontract Database is Ownable, DatabaseInterface {\n    event StorageModified(address indexed contractAddress, bool allowed);\n\n    mapping (bytes32 => bytes32) data_bytes32;\n    mapping (bytes32 => bytes) data_bytes;\n    mapping (bytes32 => bytes32[]) data_bytesArray;\n    mapping (bytes32 => int[]) data_intArray;\n    mapping (bytes32 => address[]) data_addressArray;\n    mapping (address => bool) allowed;\n\n    modifier storageOnly {\n        require(allowed[msg.sender], \"Error: Access not allowed to storage\");\n        _;\n    }\n\n    function setStorageContract(address _storageContract, bool _allowed) public onlyOwner {\n        require(_storageContract != address(0), \"Error: Address zero is invalid storage contract\");\n        allowed[_storageContract] = _allowed;\n        emit StorageModified(_storageContract, _allowed);\n    }\n\n    /*** Bytes32 ***/\n    function getBytes32(bytes32 key) external view returns(bytes32) {\n        return data_bytes32[key];\n    }\n\n    function setBytes32(bytes32 key, bytes32 value) external storageOnly  {\n        data_bytes32[key] = value;\n    }\n\n    /*** Number **/\n    function getNumber(bytes32 key) external view returns(uint256) {\n        return uint256(data_bytes32[key]);\n    }\n\n    function setNumber(bytes32 key, uint256 value) external storageOnly {\n        data_bytes32[key] = bytes32(value);\n    }\n\n    /*** Bytes ***/\n    function getBytes(bytes32 key) external view returns(bytes memory) {\n        return data_bytes[key];\n    }\n\n    function setBytes(bytes32 key, bytes calldata value) external storageOnly {\n        data_bytes[key] = value;\n    }\n\n    /*** String ***/\n    function getString(bytes32 key) external view returns(string memory) {\n        return string(data_bytes[key]);\n    }\n\n    function setString(bytes32 key, string calldata value) external storageOnly {\n        data_bytes[key] = bytes(value);\n    }\n\n    /*** Bytes Array ***/\n    function getBytesArray(bytes32 key) external view returns (bytes32[] memory) {\n        return data_bytesArray[key];\n    }\n\n    function getBytesArrayIndex(bytes32 key, uint256 index) external view returns (bytes32) {\n        return data_bytesArray[key][index];\n    }\n\n    function getBytesArrayLength(bytes32 key) external view returns (uint256) {\n        return data_bytesArray[key].length;\n    }\n\n    function pushBytesArray(bytes32 key, bytes32 value) external {\n        data_bytesArray[key].push(value);\n    }\n\n    function setBytesArrayIndex(bytes32 key, uint256 index, bytes32 value) external storageOnly {\n        data_bytesArray[key][index] = value;\n    }\n\n    function setBytesArray(bytes32 key, bytes32[] calldata value) external storageOnly {\n        data_bytesArray[key] = value;\n    }\n\n    /*** Int Array ***/\n    function getIntArray(bytes32 key) external view returns (int[] memory) {\n        return data_intArray[key];\n    }\n\n    function getIntArrayIndex(bytes32 key, uint256 index) external view returns (int) {\n        return data_intArray[key][index];\n    }\n\n    function getIntArrayLength(bytes32 key) external view returns (uint256) {\n        return data_intArray[key].length;\n    }\n\n    function pushIntArray(bytes32 key, int value) external {\n        data_intArray[key].push(value);\n    }\n\n    function setIntArrayIndex(bytes32 key, uint256 index, int value) external storageOnly {\n        data_intArray[key][index] = value;\n    }\n\n    function setIntArray(bytes32 key, int[] calldata value) external storageOnly {\n        data_intArray[key] = value;\n    }\n\n    /*** Address Array ***/\n    function getAddressArray(bytes32 key) external view returns (address[] memory) {\n        return data_addressArray[key];\n    }\n\n    function getAddressArrayIndex(bytes32 key, uint256 index) external view returns (address) {\n        return data_addressArray[key][index];\n    }\n\n    function getAddressArrayLength(bytes32 key) external view returns (uint256) {\n        return data_addressArray[key].length;\n    }\n\n    function pushAddressArray(bytes32 key, address value) external {\n        data_addressArray[key].push(value);\n    }\n\n    function setAddressArrayIndex(bytes32 key, uint256 index, address value) external storageOnly {\n        data_addressArray[key][index] = value;\n    }\n\n    function setAddressArray(bytes32 key, address[] calldata value) external storageOnly {\n        data_addressArray[key] = value;\n    }\n}\n",
  "sourcePath": "/home/otacon9000/work/zap_java/jzap/contracts/platform/database/Database.sol",
  "compiler": {
    "name": "solc",
    "version": "0.5.16+commit.9c3226ce.Emscripten.clang"
  },
  "schemaVersion": "3.3.3",
  "updatedAt": "2021-01-25T18:34:57.891Z",
  "devdoc": {
    "methods": {
      "transferOwnership(address)": {
        "details": "Allows the current owner to transfer control of the contract to a newOwner.",
        "params": {
          "newOwner": "The address to transfer ownership to."
        }
      }
    }
  },
  "userdoc": {
    "methods": {
      "getAddressArray(bytes32)": {
        "notice": "* Address Array **"
      },
      "getBytes(bytes32)": {
        "notice": "* Bytes **"
      },
      "getBytes32(bytes32)": {
        "notice": "* Bytes32 **"
      },
      "getBytesArray(bytes32)": {
        "notice": "* Bytes Array **"
      },
      "getIntArray(bytes32)": {
        "notice": "* Int Array **"
      },
      "getNumber(bytes32)": {
        "notice": "* Number *"
      },
      "getString(bytes32)": {
        "notice": "* String **"
      }
    }
  }
}