{
  "contractName": "MPOStorage",
  "abi": [
    {
      "anonymous": false,
      "inputs": [
        {
          "indexed": true,
          "internalType": "address",
          "name": "previousOwner",
          "type": "address"
        },
        {
          "indexed": true,
          "internalType": "address",
          "name": "newOwner",
          "type": "address"
        }
      ],
      "name": "OwnershipTransferred",
      "type": "event"
    },
    {
      "constant": true,
      "inputs": [],
      "name": "owner",
      "outputs": [
        {
          "internalType": "address payable",
          "name": "",
          "type": "address"
        }
      ],
      "payable": false,
      "stateMutability": "view",
      "type": "function"
    },
    {
      "constant": false,
      "inputs": [
        {
          "internalType": "address payable",
          "name": "newOwner",
          "type": "address"
        }
      ],
      "name": "transferOwnership",
      "outputs": [],
      "payable": false,
      "stateMutability": "nonpayable",
      "type": "function"
    },
    {
      "constant": false,
      "inputs": [
        {
          "internalType": "uint256",
          "name": "queryId",
          "type": "uint256"
        },
        {
          "internalType": "uint256",
          "name": "_threshold",
          "type": "uint256"
        }
      ],
      "name": "setThreshold",
      "outputs": [],
      "payable": false,
      "stateMutability": "nonpayable",
      "type": "function"
    },
    {
      "constant": false,
      "inputs": [
        {
          "internalType": "uint256",
          "name": "mpoId",
          "type": "uint256"
        },
        {
          "internalType": "uint256",
          "name": "_clientQueryId",
          "type": "uint256"
        }
      ],
      "name": "setClientQueryId",
      "outputs": [],
      "payable": false,
      "stateMutability": "nonpayable",
      "type": "function"
    },
    {
      "constant": false,
      "inputs": [
        {
          "internalType": "address[]",
          "name": "parties",
          "type": "address[]"
        }
      ],
      "name": "setResponders",
      "outputs": [],
      "payable": false,
      "stateMutability": "nonpayable",
      "type": "function"
    },
    {
      "constant": false,
      "inputs": [
        {
          "internalType": "uint256",
          "name": "queryId",
          "type": "uint256"
        },
        {
          "internalType": "address",
          "name": "sender",
          "type": "address"
        }
      ],
      "name": "reachedThreshold",
      "outputs": [],
      "payable": false,
      "stateMutability": "nonpayable",
      "type": "function"
    },
    {
      "constant": false,
      "inputs": [
        {
          "internalType": "uint256",
          "name": "queryId",
          "type": "uint256"
        },
        {
          "internalType": "uint256",
          "name": "status",
          "type": "uint256"
        }
      ],
      "name": "setQueryStatus",
      "outputs": [],
      "payable": false,
      "stateMutability": "nonpayable",
      "type": "function"
    },
    {
      "constant": false,
      "inputs": [
        {
          "internalType": "uint256",
          "name": "queryId",
          "type": "uint256"
        },
        {
          "internalType": "uint256",
          "name": "response",
          "type": "uint256"
        }
      ],
      "name": "tallyResponse",
      "outputs": [],
      "payable": false,
      "stateMutability": "nonpayable",
      "type": "function"
    },
    {
      "constant": false,
      "inputs": [
        {
          "internalType": "uint256",
          "name": "queryId",
          "type": "uint256"
        },
        {
          "internalType": "address",
          "name": "responder",
          "type": "address"
        }
      ],
      "name": "tallyAddress",
      "outputs": [],
      "payable": false,
      "stateMutability": "nonpayable",
      "type": "function"
    },
    {
      "constant": false,
      "inputs": [
        {
          "internalType": "uint256",
          "name": "queryId",
          "type": "uint256"
        },
        {
          "internalType": "address",
          "name": "party",
          "type": "address"
        }
      ],
      "name": "addResponse",
      "outputs": [],
      "payable": false,
      "stateMutability": "nonpayable",
      "type": "function"
    },
    {
      "constant": false,
      "inputs": [
        {
          "internalType": "uint256",
          "name": "queryId",
          "type": "uint256"
        },
        {
          "internalType": "uint256",
          "name": "response",
          "type": "uint256"
        }
      ],
      "name": "addThresholdResponse",
      "outputs": [],
      "payable": false,
      "stateMutability": "nonpayable",
      "type": "function"
    },
    {
      "constant": false,
      "inputs": [
        {
          "internalType": "uint256",
          "name": "queryId",
          "type": "uint256"
        },
        {
          "internalType": "uint256",
          "name": "_delta",
          "type": "uint256"
        }
      ],
      "name": "setDelta",
      "outputs": [],
      "payable": false,
      "stateMutability": "nonpayable",
      "type": "function"
    },
    {
      "constant": false,
      "inputs": [
        {
          "internalType": "uint256",
          "name": "queryId",
          "type": "uint256"
        },
        {
          "internalType": "uint256",
          "name": "_precision",
          "type": "uint256"
        }
      ],
      "name": "setPrecision",
      "outputs": [],
      "payable": false,
      "stateMutability": "nonpayable",
      "type": "function"
    },
    {
      "constant": true,
      "inputs": [
        {
          "internalType": "uint256",
          "name": "queryId",
          "type": "uint256"
        },
        {
          "internalType": "address",
          "name": "party",
          "type": "address"
        }
      ],
      "name": "onlyOneResponse",
      "outputs": [
        {
          "internalType": "bool",
          "name": "",
          "type": "bool"
        }
      ],
      "payable": false,
      "stateMutability": "view",
      "type": "function"
    },
    {
      "constant": true,
      "inputs": [
        {
          "internalType": "uint256",
          "name": "queryId",
          "type": "uint256"
        },
        {
          "internalType": "address",
          "name": "party",
          "type": "address"
        }
      ],
      "name": "getThresholdStatus",
      "outputs": [
        {
          "internalType": "bool",
          "name": "",
          "type": "bool"
        }
      ],
      "payable": false,
      "stateMutability": "view",
      "type": "function"
    },
    {
      "constant": true,
      "inputs": [
        {
          "internalType": "address",
          "name": "party",
          "type": "address"
        }
      ],
      "name": "getAddressStatus",
      "outputs": [
        {
          "internalType": "bool",
          "name": "",
          "type": "bool"
        }
      ],
      "payable": false,
      "stateMutability": "view",
      "type": "function"
    },
    {
      "constant": true,
      "inputs": [
        {
          "internalType": "uint256",
          "name": "queryId",
          "type": "uint256"
        }
      ],
      "name": "getThreshold",
      "outputs": [
        {
          "internalType": "uint256",
          "name": "",
          "type": "uint256"
        }
      ],
      "payable": false,
      "stateMutability": "view",
      "type": "function"
    },
    {
      "constant": true,
      "inputs": [
        {
          "internalType": "uint256",
          "name": "queryId",
          "type": "uint256"
        },
        {
          "internalType": "uint256",
          "name": "response",
          "type": "uint256"
        }
      ],
      "name": "getTally",
      "outputs": [
        {
          "internalType": "uint256",
          "name": "",
          "type": "uint256"
        }
      ],
      "payable": false,
      "stateMutability": "view",
      "type": "function"
    },
    {
      "constant": true,
      "inputs": [
        {
          "internalType": "uint256",
          "name": "queryId",
          "type": "uint256"
        },
        {
          "internalType": "address",
          "name": "responder",
          "type": "address"
        }
      ],
      "name": "getAddressTally",
      "outputs": [
        {
          "internalType": "uint256",
          "name": "",
          "type": "uint256"
        }
      ],
      "payable": false,
      "stateMutability": "view",
      "type": "function"
    },
    {
      "constant": true,
      "inputs": [
        {
          "internalType": "uint256",
          "name": "queryId",
          "type": "uint256"
        },
        {
          "internalType": "address",
          "name": "responder",
          "type": "address"
        }
      ],
      "name": "getAddressResponse",
      "outputs": [
        {
          "internalType": "uint256",
          "name": "",
          "type": "uint256"
        }
      ],
      "payable": false,
      "stateMutability": "view",
      "type": "function"
    },
    {
      "constant": true,
      "inputs": [
        {
          "internalType": "uint256",
          "name": "mpoId",
          "type": "uint256"
        }
      ],
      "name": "getClientQueryId",
      "outputs": [
        {
          "internalType": "uint256",
          "name": "",
          "type": "uint256"
        }
      ],
      "payable": false,
      "stateMutability": "view",
      "type": "function"
    },
    {
      "constant": true,
      "inputs": [
        {
          "internalType": "uint256",
          "name": "queryId",
          "type": "uint256"
        }
      ],
      "name": "getQueryStatus",
      "outputs": [
        {
          "internalType": "uint256",
          "name": "",
          "type": "uint256"
        }
      ],
      "payable": false,
      "stateMutability": "view",
      "type": "function"
    },
    {
      "constant": true,
      "inputs": [
        {
          "internalType": "uint256",
          "name": "queryId",
          "type": "uint256"
        }
      ],
      "name": "getThresholdResponses",
      "outputs": [
        {
          "internalType": "uint256[]",
          "name": "",
          "type": "uint256[]"
        }
      ],
      "payable": false,
      "stateMutability": "view",
      "type": "function"
    },
    {
      "constant": true,
      "inputs": [],
      "name": "getNumResponders",
      "outputs": [
        {
          "internalType": "uint256",
          "name": "",
          "type": "uint256"
        }
      ],
      "payable": false,
      "stateMutability": "view",
      "type": "function"
    },
    {
      "constant": true,
      "inputs": [
        {
          "internalType": "uint256",
          "name": "index",
          "type": "uint256"
        }
      ],
      "name": "getResponderAddress",
      "outputs": [
        {
          "internalType": "address",
          "name": "",
          "type": "address"
        }
      ],
      "payable": false,
      "stateMutability": "view",
      "type": "function"
    },
    {
      "constant": true,
      "inputs": [],
      "name": "getResponders",
      "outputs": [
        {
          "internalType": "address[]",
          "name": "",
          "type": "address[]"
        }
      ],
      "payable": false,
      "stateMutability": "view",
      "type": "function"
    },
    {
      "constant": true,
      "inputs": [
        {
          "internalType": "uint256",
          "name": "queryId",
          "type": "uint256"
        }
      ],
      "name": "getResponses",
      "outputs": [
        {
          "internalType": "uint256[]",
          "name": "",
          "type": "uint256[]"
        }
      ],
      "payable": false,
      "stateMutability": "view",
      "type": "function"
    },
    {
      "constant": true,
      "inputs": [
        {
          "internalType": "uint256",
          "name": "queryId",
          "type": "uint256"
        }
      ],
      "name": "getDelta",
      "outputs": [
        {
          "internalType": "uint256",
          "name": "",
          "type": "uint256"
        }
      ],
      "payable": false,
      "stateMutability": "view",
      "type": "function"
    },
    {
      "constant": true,
      "inputs": [
        {
          "internalType": "uint256",
          "name": "queryId",
          "type": "uint256"
        }
      ],
      "name": "getPrecision",
      "outputs": [
        {
          "internalType": "uint256",
          "name": "",
          "type": "uint256"
        }
      ],
      "payable": false,
      "stateMutability": "view",
      "type": "function"
    },
    {
      "constant": true,
      "inputs": [
        {
          "internalType": "uint256",
          "name": "queryId",
          "type": "uint256"
        }
      ],
      "name": "getQueryThreshold",
      "outputs": [
        {
          "internalType": "bool",
          "name": "",
          "type": "bool"
        }
      ],
      "payable": false,
      "stateMutability": "view",
      "type": "function"
    },
    {
      "constant": true,
      "inputs": [
        {
          "internalType": "uint256",
          "name": "queryId",
          "type": "uint256"
        }
      ],
      "name": "getAverage",
      "outputs": [
        {
          "internalType": "int256[]",
          "name": "",
          "type": "int256[]"
        }
      ],
      "payable": false,
      "stateMutability": "view",
      "type": "function"
    }
  ],
  "bytecode": "0x60806040526005601155336000806101000a81548173ffffffffffffffffffffffffffffffffffffffff021916908373ffffffffffffffffffffffffffffffffffffffff160217905550611bd9806100586000396000f3fe608060405234801561001057600080fd5b50600436106101e55760003560e01c80636f07abcc1161010f578063b9c36209116100a2578063e600505f11610071578063e600505f14610a85578063f2fde38b14610abd578063f43fd6f014610b01578063fe151a9614610b39576101e5565b8063b9c3620914610922578063bdbc01531461095a578063cdae1fba146109dd578063e226a1b614610a29576101e5565b806381f66844116100de57806381f668441461080657806387e028281461083e5780638be8f272146108a05780638da5cb5b146108d8576101e5565b80636f07abcc1461068657806371ee2ce1146106c8578063732d161c1461074b5780637d210c31146107ce576101e5565b80634c0f8073116101875780635ba4edb6116101565780635ba4edb614610575578063602bb04f146105ad578063664c0bf9146105cb5780636cc9354f14610644576101e5565b80634c0f80731461043d5780634c5738281461048b57806350d48de0146104cd5780635632258614610533576101e5565b8063287d3d36116101c3578063287d3d36146102f95780633b7bff7f146103475780634155b8501461038d5780634615d5e9146103fb576101e5565b8063090d4259146101ea57806312faae93146102385780631518ec5614610297575b600080fd5b6102366004803603604081101561020057600080fd5b8101908080359060200190929190803573ffffffffffffffffffffffffffffffffffffffff169060200190929190505050610b9f565b005b610240610c5c565b6040518080602001828103825283818151815260200191508051906020019060200280838360005b83811015610283578082015181840152602081019050610268565b505050509050019250505060405180910390f35b6102e3600480360360408110156102ad57600080fd5b8101908080359060200190929190803573ffffffffffffffffffffffffffffffffffffffff169060200190929190505050610cea565b6040518082815260200191505060405180910390f35b6103456004803603604081101561030f57600080fd5b8101908080359060200190929190803573ffffffffffffffffffffffffffffffffffffffff169060200190929190505050610d45565b005b6103736004803603602081101561035d57600080fd5b8101908080359060200190929190505050610e0b565b604051808215151515815260200191505060405180910390f35b6103b9600480360360208110156103a357600080fd5b8101908080359060200190929190505050610e35565b604051808273ffffffffffffffffffffffffffffffffffffffff1673ffffffffffffffffffffffffffffffffffffffff16815260200191505060405180910390f35b6104276004803603602081101561041157600080fd5b8101908080359060200190929190505050610e76565b6040518082815260200191505060405180910390f35b6104896004803603604081101561045357600080fd5b8101908080359060200190929190803573ffffffffffffffffffffffffffffffffffffffff169060200190929190505050610e93565b005b6104b7600480360360208110156104a157600080fd5b8101908080359060200190929190505050610f85565b6040518082815260200191505060405180910390f35b610519600480360360408110156104e357600080fd5b8101908080359060200190929190803573ffffffffffffffffffffffffffffffffffffffff169060200190929190505050610fa2565b604051808215151515815260200191505060405180910390f35b61055f6004803603602081101561054957600080fd5b810190808035906020019092919050505061100a565b6040518082815260200191505060405180910390f35b6105ab6004803603604081101561058b57600080fd5b810190808035906020019092919080359060200190929190505050611027565b005b6105b5611043565b6040518082815260200191505060405180910390f35b610642600480360360208110156105e157600080fd5b81019080803590602001906401000000008111156105fe57600080fd5b82018360208201111561061057600080fd5b8035906020019184602083028401116401000000008311171561063257600080fd5b909192939192939050505061104d565b005b6106706004803603602081101561065a57600080fd5b8101908080359060200190929190505050611180565b6040518082815260200191505060405180910390f35b6106b26004803603602081101561069c57600080fd5b810190808035906020019092919050505061119d565b6040518082815260200191505060405180910390f35b6106f4600480360360208110156106de57600080fd5b81019080803590602001909291905050506111ba565b6040518080602001828103825283818151815260200191508051906020019060200280838360005b8381101561073757808201518184015260208101905061071c565b505050509050019250505060405180910390f35b6107776004803603602081101561076157600080fd5b8101908080359060200190929190505050611225565b6040518080602001828103825283818151815260200191508051906020019060200280838360005b838110156107ba57808201518184015260208101905061079f565b505050509050019250505060405180910390f35b610804600480360360408110156107e457600080fd5b8101908080359060200190929190803590602001909291905050506114f2565b005b61083c6004803603604081101561081c57600080fd5b810190808035906020019092919080359060200190929190505050611583565b005b61088a6004803603604081101561085457600080fd5b8101908080359060200190929190803573ffffffffffffffffffffffffffffffffffffffff1690602001909291905050506115f8565b6040518082815260200191505060405180910390f35b6108d6600480360360408110156108b657600080fd5b810190808035906020019092919080359060200190929190505050611653565b005b6108e06116c8565b604051808273ffffffffffffffffffffffffffffffffffffffff1673ffffffffffffffffffffffffffffffffffffffff16815260200191505060405180910390f35b6109586004803603604081101561093857600080fd5b8101908080359060200190929190803590602001909291905050506116ed565b005b6109866004803603602081101561097057600080fd5b8101908080359060200190929190505050611762565b6040518080602001828103825283818151815260200191508051906020019060200280838360005b838110156109c95780820151818401526020810190506109ae565b505050509050019250505060405180910390f35b610a13600480360360408110156109f357600080fd5b8101908080359060200190929190803590602001909291905050506117cd565b6040518082815260200191505060405180910390f35b610a6b60048036036020811015610a3f57600080fd5b81019080803573ffffffffffffffffffffffffffffffffffffffff1690602001909291905050506117fc565b604051808215151515815260200191505060405180910390f35b610abb60048036036040811015610a9b57600080fd5b810190808035906020019092919080359060200190929190505050611852565b005b610aff60048036036020811015610ad357600080fd5b81019080803573ffffffffffffffffffffffffffffffffffffffff16906020019092919050505061186e565b005b610b3760048036036040811015610b1757600080fd5b8101908080359060200190929190803590602001909291905050506119bf565b005b610b8560048036036040811015610b4f57600080fd5b8101908080359060200190929190803573ffffffffffffffffffffffffffffffffffffffff169060200190929190505050611a59565b604051808215151515815260200191505060405180910390f35b6000809054906101000a900473ffffffffffffffffffffffffffffffffffffffff1673ffffffffffffffffffffffffffffffffffffffff163373ffffffffffffffffffffffffffffffffffffffff1614610bf857600080fd5b6007600083815260200190815260200160002060008273ffffffffffffffffffffffffffffffffffffffff1673ffffffffffffffffffffffffffffffffffffffff168152602001908152602001600020600081548092919060010191905055505050565b60606010805480602002602001604051908101604052809291908181526020018280548015610ce057602002820191906000526020600020905b8160009054906101000a900473ffffffffffffffffffffffffffffffffffffffff1673ffffffffffffffffffffffffffffffffffffffff1681526020019060010190808311610c96575b5050505050905090565b60006007600084815260200190815260200160002060008373ffffffffffffffffffffffffffffffffffffffff1673ffffffffffffffffffffffffffffffffffffffff16815260200190815260200160002054905092915050565b6000809054906101000a900473ffffffffffffffffffffffffffffffffffffffff1673ffffffffffffffffffffffffffffffffffffffff163373ffffffffffffffffffffffffffffffffffffffff1614610d9e57600080fd5b6001600b600084815260200190815260200160002060008373ffffffffffffffffffffffffffffffffffffffff1673ffffffffffffffffffffffffffffffffffffffff16815260200190815260200160002060006101000a81548160ff0219169083151502179055505050565b60006003600083815260200190815260200160002060009054906101000a900460ff169050919050565b600060108281548110610e4457fe5b9060005260206000200160009054906101000a900473ffffffffffffffffffffffffffffffffffffffff169050919050565b6000600f6000838152602001908152602001600020549050919050565b6000809054906101000a900473ffffffffffffffffffffffffffffffffffffffff1673ffffffffffffffffffffffffffffffffffffffff163373ffffffffffffffffffffffffffffffffffffffff1614610eec57600080fd5b60016002600084815260200190815260200160002060008373ffffffffffffffffffffffffffffffffffffffff1673ffffffffffffffffffffffffffffffffffffffff16815260200190815260200160002060006101000a81548160ff02191690831515021790555060016003600084815260200190815260200160002060006101000a81548160ff0219169083151502179055505050565b6000600d6000838152602001908152602001600020549050919050565b60006002600084815260200190815260200160002060008373ffffffffffffffffffffffffffffffffffffffff1673ffffffffffffffffffffffffffffffffffffffff16815260200190815260200160002060009054906101000a900460ff16905092915050565b6000600e6000838152602001908152602001600020549050919050565b80600e6000848152602001908152602001600020819055505050565b6000601154905090565b6000809054906101000a900473ffffffffffffffffffffffffffffffffffffffff1673ffffffffffffffffffffffffffffffffffffffff163373ffffffffffffffffffffffffffffffffffffffff16146110a657600080fd5b8181601091906110b7929190611ac1565b508181905060115411156110d057818190506011819055505b60008090505b60115481101561117b576001806000601084815481106110f257fe5b9060005260206000200160009054906101000a900473ffffffffffffffffffffffffffffffffffffffff1673ffffffffffffffffffffffffffffffffffffffff1673ffffffffffffffffffffffffffffffffffffffff16815260200190815260200160002060006101000a81548160ff02191690831515021790555080806001019150506110d6565b505050565b6000600c6000838152602001908152602001600020549050919050565b600060046000838152602001908152602001600020549050919050565b60606008600083815260200190815260200160002080548060200260200160405190810160405280929190818152602001828054801561121957602002820191906000526020600020905b815481526020019060010190808311611205575b50505050509050919050565b6060600060108054905014156112a3576040517f08c379a000000000000000000000000000000000000000000000000000000000815260040180806020018281038252600e8152602001807f4469766973696f6e206572726f7200000000000000000000000000000000000081525060200191505060405180910390fd5b6000809050600080905060008090505b6011548110156113f957600260008681526020019081526020016000206000601083815481106112df57fe5b9060005260206000200160009054906101000a900473ffffffffffffffffffffffffffffffffffffffff1673ffffffffffffffffffffffffffffffffffffffff1673ffffffffffffffffffffffffffffffffffffffff16815260200190815260200160002060009054906101000a900460ff16156113ec5781806001019250506006600086815260200190815260200160002060006010838154811061138157fe5b9060005260206000200160009054906101000a900473ffffffffffffffffffffffffffffffffffffffff1673ffffffffffffffffffffffffffffffffffffffff1673ffffffffffffffffffffffffffffffffffffffff16815260200190815260200160002054830192505b80806001019150506112b3565b507fffffffffffffffffffffffffffffffffffffffffffffffffffffffffffffffff821061148f576040517f08c379a000000000000000000000000000000000000000000000000000000000815260040180806020018281038252601a8152602001807f4f766572666c6f77206572726f7228676574417665726167652900000000000081525060200191505060405180910390fd5b606060016040519080825280602002602001820160405280156114c15781602001602082028038833980820191505090505b5090508183816114cd57fe5b05816000815181106114db57fe5b602002602001018181525050809350505050919050565b6000809054906101000a900473ffffffffffffffffffffffffffffffffffffffff1673ffffffffffffffffffffffffffffffffffffffff163373ffffffffffffffffffffffffffffffffffffffff161461154b57600080fd5b600560008381526020019081526020016000206000828152602001908152602001600020600081548092919060010191905055505050565b6000809054906101000a900473ffffffffffffffffffffffffffffffffffffffff1673ffffffffffffffffffffffffffffffffffffffff163373ffffffffffffffffffffffffffffffffffffffff16146115dc57600080fd5b8060046000848152602001908152602001600020819055505050565b60006006600084815260200190815260200160002060008373ffffffffffffffffffffffffffffffffffffffff1673ffffffffffffffffffffffffffffffffffffffff16815260200190815260200160002054905092915050565b6000809054906101000a900473ffffffffffffffffffffffffffffffffffffffff1673ffffffffffffffffffffffffffffffffffffffff163373ffffffffffffffffffffffffffffffffffffffff16146116ac57600080fd5b80600c6000848152602001908152602001600020819055505050565b6000809054906101000a900473ffffffffffffffffffffffffffffffffffffffff1681565b6000809054906101000a900473ffffffffffffffffffffffffffffffffffffffff1673ffffffffffffffffffffffffffffffffffffffff163373ffffffffffffffffffffffffffffffffffffffff161461174657600080fd5b80600f6000848152602001908152602001600020819055505050565b6060600960008381526020019081526020016000208054806020026020016040519081016040528092919081815260200182805480156117c157602002820191906000526020600020905b8154815260200190600101908083116117ad575b50505050509050919050565b600060056000848152602001908152602001600020600083815260200190815260200160002054905092915050565b6000600160008373ffffffffffffffffffffffffffffffffffffffff1673ffffffffffffffffffffffffffffffffffffffff16815260200190815260200160002060009054906101000a900460ff169050919050565b80600d6000848152602001908152602001600020819055505050565b6000809054906101000a900473ffffffffffffffffffffffffffffffffffffffff1673ffffffffffffffffffffffffffffffffffffffff163373ffffffffffffffffffffffffffffffffffffffff16146118c757600080fd5b600073ffffffffffffffffffffffffffffffffffffffff168173ffffffffffffffffffffffffffffffffffffffff16141561190157600080fd5b8073ffffffffffffffffffffffffffffffffffffffff166000809054906101000a900473ffffffffffffffffffffffffffffffffffffffff1673ffffffffffffffffffffffffffffffffffffffff167f8be0079c531659141344cd1fd0a4f28419497f9722a3daafe3b4186f6b6457e060405160405180910390a3806000806101000a81548173ffffffffffffffffffffffffffffffffffffffff021916908373ffffffffffffffffffffffffffffffffffffffff16021790555050565b6000809054906101000a900473ffffffffffffffffffffffffffffffffffffffff1673ffffffffffffffffffffffffffffffffffffffff163373ffffffffffffffffffffffffffffffffffffffff1614611a1857600080fd5b600960008381526020019081526020016000208190806001815401808255809150509060018203906000526020600020016000909192909190915055505050565b6000600b600084815260200190815260200160002060008373ffffffffffffffffffffffffffffffffffffffff1673ffffffffffffffffffffffffffffffffffffffff16815260200190815260200160002060009054906101000a900460ff16905092915050565b828054828255906000526020600020908101928215611b50579160200282015b82811115611b4f57823573ffffffffffffffffffffffffffffffffffffffff168260006101000a81548173ffffffffffffffffffffffffffffffffffffffff021916908373ffffffffffffffffffffffffffffffffffffffff16021790555091602001919060010190611ae1565b5b509050611b5d9190611b61565b5090565b611ba191905b80821115611b9d57600081816101000a81549073ffffffffffffffffffffffffffffffffffffffff021916905550600101611b67565b5090565b9056fea265627a7a72315820763cb6bc964d000b49d9e3c00aeb71bf277dc7d9d54d056f7810e8605c15aa1464736f6c63430005100032",
  "source": "pragma solidity ^0.5.1;\n\nimport \"./lib/Ownable.sol\";\n\ncontract MPOStorage is Ownable{\n\n\n\t// check if msg.sender is in global approved list of responders\n\tmapping(address => bool) approvedAddress; \n\tmapping(uint256 => mapping(address => bool) ) isThresholdReached; \n\tmapping(uint256 => bool ) thresholdReached; \n\t// Threshold reached, do not accept any more responses\n\tmapping(uint256 => uint256) queryStatus;\n\t// Tally of each response.\n\tmapping(uint256 => mapping(uint256 => uint256) ) responseTally; \n\tmapping(uint256 => mapping(address => uint256) ) addressResponse; \n\tmapping(uint256 => mapping(address => uint256) ) addressTally; \n\tmapping(uint256 => uint256[]) responseArr; \n\tmapping(uint256 => uint256[]) thresholdArr;\n\tmapping(uint256 => uint256) average;\n\t// Make sure each party can only submit one response\n\tmapping(uint256 => mapping(address => bool)) oneAddressResponse; \n\tmapping(uint256 => uint256) mpoToClientId;\n\t\n\tmapping(uint256 => uint256) precision; \n\tmapping(uint256 => uint256) delta; \n\n\tmapping(uint256 => uint256) threshold;\n\taddress[] responders;\n\tuint256 responderLength = 5;\n\t// implements Client1\n\taddress client;\n\tuint256 clientQueryId; \n\n\n\t// Set Methods / Mutators\n\tfunction setThreshold(uint queryId, uint256 _threshold) external onlyOwner {\n\t\tthreshold[queryId] = _threshold;\n\t}\n\n\tfunction setClientQueryId(uint256 mpoId, uint256 _clientQueryId) external onlyOwner {\n\t\tmpoToClientId[mpoId] = _clientQueryId;\n\t}\n \n\tfunction setResponders(address[] calldata parties) external  onlyOwner{\n\t\tresponders=parties;\n\t\tif(responderLength>parties.length){\n\t\t\tresponderLength = parties.length;\n\t\t}\n\t\tfor(uint256 i=0; i <responderLength; i++){\n\t\t\tapprovedAddress[responders[i]]=true;\n\t\t}\n\t}\n\tfunction reachedThreshold(uint256 queryId, address sender) external  onlyOwner{\n\t\tisThresholdReached[queryId][sender] = true;\n\t\tthresholdReached[queryId] = true;\n\t}\n\tfunction setQueryStatus(uint queryId, uint256 status) external onlyOwner {\n\t\tqueryStatus[queryId]=status;\n\t}\n\n\tfunction tallyResponse(uint256 queryId, uint response) external onlyOwner {\n\t\tresponseTally[queryId][response]++;\n\n\t}\n\tfunction tallyAddress(uint256 queryId, address responder) external onlyOwner {\n\t\taddressTally[queryId][responder]++;\n\n\t}\n\tfunction addResponse(uint256 queryId, address party) external onlyOwner {\n\t\t// responseArr[queryId].push(response);\n\t\t// addressTally[queryId][party]++;\n\t\t// addressResponse[queryId][party] = response;\n\t\toneAddressResponse[queryId][party] = true;\n\t}\n\tfunction addThresholdResponse(uint256 queryId, uint256 response) external onlyOwner {\n\t\tthresholdArr[queryId].push(response);\n\t}\n\tfunction setDelta(uint256 queryId, uint256 _delta) external{\n\t\tdelta[queryId] = _delta;\n\t}\n\n\tfunction setPrecision(uint256 queryId, uint256 _precision) external{\n\t\tprecision[queryId] = _precision;\n\t}\n\t// Get Methods / Accessors\n\n\tfunction onlyOneResponse(uint256 queryId, address party) external view returns(bool) {\n        return oneAddressResponse[queryId][party];\n    }\n    function getThresholdStatus(uint256 queryId, address party) external view returns(bool) {\n        return isThresholdReached[queryId][party];\n    }\n\n    function getAddressStatus(address party) external view returns(bool){\n        return approvedAddress[party];\n    }\n\t\n\tfunction getThreshold(uint queryId) external view returns(uint) { \n\t\treturn threshold[queryId];\n\t}\n\t\n\tfunction getTally(uint256 queryId, uint256 response)external view returns(uint256){\n\t\treturn responseTally[queryId][response];\n\t}\n\tfunction getAddressTally(uint256 queryId, address responder)external view returns(uint256){\n\t\treturn addressTally[queryId][responder];\n\t}\n\tfunction getAddressResponse(uint256 queryId, address responder)external view returns(uint256){\n\t\treturn addressResponse[queryId][responder];\n\t}\n\t\n\tfunction getClientQueryId(uint256 mpoId) external view returns(uint256){\n\t\treturn mpoToClientId[mpoId];\n\t}\n\n\tfunction getQueryStatus(uint256 queryId) external view returns(uint256){\n\t\treturn queryStatus[queryId];\n\t}\n\tfunction getThresholdResponses(uint256 queryId) external view returns(uint256[] memory ){\n\t\treturn thresholdArr[queryId];\n\t}\n\n\tfunction getNumResponders() external view returns (uint) {\n\t\treturn responderLength;\n\t}\n\n\tfunction getResponderAddress(uint index) external view returns(address){\n\t\treturn responders[index];\n\t}\n\tfunction getResponders() external view returns (address[] memory){\n\t\treturn responders;\n\t}\n\tfunction getResponses(uint256 queryId) external view returns(uint256[] memory){\n\t\treturn responseArr[queryId];\n\t}\n\tfunction getDelta(uint256 queryId) external view returns(uint256){\n\t\treturn delta[queryId];\n\t}\n\tfunction getPrecision(uint256 queryId) external view returns(uint256){\n\t\treturn precision[queryId];\n\t}\n\tfunction getQueryThreshold(uint queryId)external view returns(bool){\n\t\treturn thresholdReached[queryId];\n\t}\n\tfunction getAverage(uint256 queryId) external view returns(int[] memory ){\n\t\trequire(responders.length!=0, \"Division error\");\n\t\tuint total = 0;\n\t\tuint len=0;\n\t\t\n\t\tfor (uint i =0; i < responderLength ;i++){\n\t\t\tif(isThresholdReached[queryId][responders[i]] ){\n\t\t\t\tlen++;\n\t\t\t\ttotal+=addressResponse[queryId][responders[i]];\n\t\t\t\t\n\t\t\t}\n\t\t}\n\t\trequire(total<uint(2**256-1), \"Overflow error(getAverage)\");\n\t\tint[] memory avg = new int[](1);\n\t\tavg[0]=int(total) / int(len);\n\t\treturn avg;\n\t}\n\t\n\n}\n",
  "sourcePath": "/home/otacon9000/work/zap_java/jzap/contracts/MPO/MPOStorage.sol",
  "compiler": {
    "name": "solc",
    "version": "0.5.16+commit.9c3226ce.Emscripten.clang"
  },
  "schemaVersion": "3.3.3",
  "updatedAt": "2021-01-25T18:34:57.585Z",
  "devdoc": {
    "methods": {
      "transferOwnership(address)": {
        "details": "Allows the current owner to transfer control of the contract to a newOwner.",
        "params": {
          "newOwner": "The address to transfer ownership to."
        }
      }
    }
  },
  "userdoc": {
    "methods": {}
  }
}