{
  "contractName": "MultiPartyOracle",
  "abi": [
    {
      "inputs": [
        {
          "internalType": "address",
          "name": "_zapCoord",
          "type": "address"
        },
        {
          "internalType": "address",
          "name": "mpoStorageAddress",
          "type": "address"
        }
      ],
      "payable": false,
      "stateMutability": "nonpayable",
      "type": "constructor"
    },
    {
      "anonymous": false,
      "inputs": [
        {
          "indexed": false,
          "internalType": "uint256",
          "name": "id",
          "type": "uint256"
        },
        {
          "indexed": false,
          "internalType": "address",
          "name": "provider",
          "type": "address"
        },
        {
          "indexed": false,
          "internalType": "address",
          "name": "subscriber",
          "type": "address"
        },
        {
          "indexed": false,
          "internalType": "string",
          "name": "query",
          "type": "string"
        },
        {
          "indexed": false,
          "internalType": "bytes32",
          "name": "endpoint",
          "type": "bytes32"
        },
        {
          "indexed": false,
          "internalType": "bytes32[]",
          "name": "endpointParams",
          "type": "bytes32[]"
        },
        {
          "indexed": false,
          "internalType": "bool",
          "name": "onchainSubscriber",
          "type": "bool"
        }
      ],
      "name": "Incoming",
      "type": "event"
    },
    {
      "anonymous": false,
      "inputs": [
        {
          "indexed": false,
          "internalType": "uint256",
          "name": "queryId",
          "type": "uint256"
        },
        {
          "indexed": false,
          "internalType": "address",
          "name": "responder",
          "type": "address"
        },
        {
          "indexed": false,
          "internalType": "string",
          "name": "response",
          "type": "string"
        }
      ],
      "name": "ReceivedResponse",
      "type": "event"
    },
    {
      "anonymous": false,
      "inputs": [
        {
          "indexed": false,
          "internalType": "string",
          "name": "query",
          "type": "string"
        },
        {
          "indexed": false,
          "internalType": "bytes32",
          "name": "endpoint",
          "type": "bytes32"
        },
        {
          "indexed": false,
          "internalType": "bytes32[]",
          "name": "params",
          "type": "bytes32[]"
        },
        {
          "indexed": false,
          "internalType": "address",
          "name": "sender",
          "type": "address"
        }
      ],
      "name": "RecievedQuery",
      "type": "event"
    },
    {
      "anonymous": false,
      "inputs": [
        {
          "indexed": false,
          "internalType": "uint256",
          "name": "id",
          "type": "uint256"
        },
        {
          "indexed": false,
          "internalType": "string",
          "name": "response1",
          "type": "string"
        }
      ],
      "name": "Result1",
      "type": "event"
    },
    {
      "constant": true,
      "inputs": [],
      "name": "spec3",
      "outputs": [
        {
          "internalType": "bytes32",
          "name": "",
          "type": "bytes32"
        }
      ],
      "payable": false,
      "stateMutability": "view",
      "type": "function"
    },
    {
      "constant": true,
      "inputs": [],
      "name": "storageAddress",
      "outputs": [
        {
          "internalType": "address",
          "name": "",
          "type": "address"
        }
      ],
      "payable": false,
      "stateMutability": "view",
      "type": "function"
    },
    {
      "constant": false,
      "inputs": [
        {
          "internalType": "address[]",
          "name": "_responders",
          "type": "address[]"
        }
      ],
      "name": "setup",
      "outputs": [],
      "payable": false,
      "stateMutability": "nonpayable",
      "type": "function"
    },
    {
      "constant": false,
      "inputs": [
        {
          "internalType": "uint256",
          "name": "id",
          "type": "uint256"
        },
        {
          "internalType": "string",
          "name": "userQuery",
          "type": "string"
        },
        {
          "internalType": "bytes32",
          "name": "endpoint",
          "type": "bytes32"
        },
        {
          "internalType": "bytes32[]",
          "name": "endpointParams",
          "type": "bytes32[]"
        },
        {
          "internalType": "bool",
          "name": "onchainSubscriber",
          "type": "bool"
        }
      ],
      "name": "receive",
      "outputs": [],
      "payable": false,
      "stateMutability": "nonpayable",
      "type": "function"
    },
    {
      "constant": false,
      "inputs": [
        {
          "internalType": "uint256",
          "name": "mpoId",
          "type": "uint256"
        },
        {
          "internalType": "uint256[]",
          "name": "responses",
          "type": "uint256[]"
        },
        {
          "internalType": "bytes32[]",
          "name": "msgHash",
          "type": "bytes32[]"
        },
        {
          "internalType": "uint8[]",
          "name": "sigv",
          "type": "uint8[]"
        },
        {
          "internalType": "bytes32[]",
          "name": "sigrs",
          "type": "bytes32[]"
        }
      ],
      "name": "callback",
      "outputs": [],
      "payable": false,
      "stateMutability": "nonpayable",
      "type": "function"
    },
    {
      "constant": false,
      "inputs": [],
      "name": "payout",
      "outputs": [],
      "payable": false,
      "stateMutability": "nonpayable",
      "type": "function"
    },
    {
      "constant": false,
      "inputs": [],
      "name": "withdrawBalance",
      "outputs": [],
      "payable": false,
      "stateMutability": "nonpayable",
      "type": "function"
    }
  ],
  "bytecode": "0x60806040527f4e6f6e70726f7669646572730000000000000000000000000000000000000000600b556040518060600160405280600163ffffffff168152602001600163ffffffff168152602001633b9aca0063ffffffff16815250600c9060036200006d9291906200069f565b506000600d556000600e5560006010553480156200008a57600080fd5b5060405162002def38038062002def83398181016040526040811015620000b057600080fd5b8101908080519060200190929190805190602001909291905050508173ffffffffffffffffffffffffffffffffffffffff1663358177736040518163ffffffff1660e01b81526004018080602001828103825260088152602001807f524547495354525900000000000000000000000000000000000000000000000081525060200191505060206040518083038186803b1580156200014e57600080fd5b505afa15801562000163573d6000803e3d6000fd5b505050506040513d60208110156200017a57600080fd5b8101908080519060200190929190505050600760006101000a81548173ffffffffffffffffffffffffffffffffffffffff021916908373ffffffffffffffffffffffffffffffffffffffff160217905550600760009054906101000a900473ffffffffffffffffffffffffffffffffffffffff16600260006101000a81548173ffffffffffffffffffffffffffffffffffffffff021916908373ffffffffffffffffffffffffffffffffffffffff1602179055508173ffffffffffffffffffffffffffffffffffffffff1663358177736040518163ffffffff1660e01b81526004018080602001828103825260088152602001807f444953504154434800000000000000000000000000000000000000000000000081525060200191505060206040518083038186803b158015620002b157600080fd5b505afa158015620002c6573d6000803e3d6000fd5b505050506040513d6020811015620002dd57600080fd5b8101908080519060200190929190505050600560006101000a81548173ffffffffffffffffffffffffffffffffffffffff021916908373ffffffffffffffffffffffffffffffffffffffff160217905550600560009054906101000a900473ffffffffffffffffffffffffffffffffffffffff166000806101000a81548173ffffffffffffffffffffffffffffffffffffffff021916908373ffffffffffffffffffffffffffffffffffffffff1602179055508173ffffffffffffffffffffffffffffffffffffffff1663358177736040518163ffffffff1660e01b81526004018080602001828103825260078152602001807f424f4e444147450000000000000000000000000000000000000000000000000081525060200191505060206040518083038186803b1580156200041357600080fd5b505afa15801562000428573d6000803e3d6000fd5b505050506040513d60208110156200043f57600080fd5b8101908080519060200190929190505050600660006101000a81548173ffffffffffffffffffffffffffffffffffffffff021916908373ffffffffffffffffffffffffffffffffffffffff160217905550600660009054906101000a900473ffffffffffffffffffffffffffffffffffffffff16600160006101000a81548173ffffffffffffffffffffffffffffffffffffffff021916908373ffffffffffffffffffffffffffffffffffffffff1602179055508173ffffffffffffffffffffffffffffffffffffffff1663358177736040518163ffffffff1660e01b81526004018080602001828103825260098152602001807f5a41505f544f4b454e000000000000000000000000000000000000000000000081525060200191505060206040518083038186803b1580156200057657600080fd5b505afa1580156200058b573d6000803e3d6000fd5b505050506040513d6020811015620005a257600080fd5b8101908080519060200190929190505050600860006101000a81548173ffffffffffffffffffffffffffffffffffffffff021916908373ffffffffffffffffffffffffffffffffffffffff160217905550600860009054906101000a900473ffffffffffffffffffffffffffffffffffffffff16600360006101000a81548173ffffffffffffffffffffffffffffffffffffffff021916908373ffffffffffffffffffffffffffffffffffffffff16021790555080600460006101000a81548173ffffffffffffffffffffffffffffffffffffffff021916908373ffffffffffffffffffffffffffffffffffffffff160217905550505062000721565b828054828255906000526020600020908101928215620006e6579160200282015b82811115620006e5578251829063ffffffff16905591602001919060010190620006c0565b5b509050620006f59190620006f9565b5090565b6200071e91905b808211156200071a57600081600090555060010162000700565b5090565b90565b6126be80620007316000396000f3fe608060405234801561001057600080fd5b506004361061007d5760003560e01c80637ff94b621161005b5780637ff94b621461021857806385aa92a714610236578063bd5b853b14610280578063de261583146103385761007d565b80632ac9f6a3146100825780635fd8c7101461020457806363bd1d4a1461020e575b600080fd5b610202600480360360a081101561009857600080fd5b8101908080359060200190929190803590602001906401000000008111156100bf57600080fd5b8201836020820111156100d157600080fd5b803590602001918460208302840111640100000000831117156100f357600080fd5b90919293919293908035906020019064010000000081111561011457600080fd5b82018360208201111561012657600080fd5b8035906020019184602083028401116401000000008311171561014857600080fd5b90919293919293908035906020019064010000000081111561016957600080fd5b82018360208201111561017b57600080fd5b8035906020019184602083028401116401000000008311171561019d57600080fd5b9091929391929390803590602001906401000000008111156101be57600080fd5b8201836020820111156101d057600080fd5b803590602001918460208302840111640100000000831117156101f257600080fd5b9091929391929390505050610426565b005b61020c610d7a565b005b610216611122565b005b6102206119e6565b6040518082815260200191505060405180910390f35b61023e6119ec565b604051808273ffffffffffffffffffffffffffffffffffffffff1673ffffffffffffffffffffffffffffffffffffffff16815260200191505060405180910390f35b6103366004803603602081101561029657600080fd5b81019080803590602001906401000000008111156102b357600080fd5b8201836020820111156102c557600080fd5b803590602001918460208302840111640100000000831117156102e757600080fd5b919080806020026020016040519081016040528093929190818152602001838360200280828437600081840152601f19601f820116905080830192505050505050509192919290505050611a12565b005b610424600480360360a081101561034e57600080fd5b81019080803590602001909291908035906020019064010000000081111561037557600080fd5b82018360208201111561038757600080fd5b803590602001918460018302840111640100000000831117156103a957600080fd5b909192939192939080359060200190929190803590602001906401000000008111156103d457600080fd5b8201836020820111156103e657600080fd5b8035906020019184602083028401116401000000008311171561040857600080fd5b9091929391929390803515159060200190929190505050611cf3565b005b6000600460009054906101000a900473ffffffffffffffffffffffffffffffffffffffff1673ffffffffffffffffffffffffffffffffffffffff16636cc9354f8b6040518263ffffffff1660e01b81526004018082815260200191505060206040518083038186803b15801561049b57600080fd5b505afa1580156104af573d6000803e3d6000fd5b505050506040513d60208110156104c557600080fd5b81019080805190602001909291905050509050600080600090505b888890508110156108855760018989838181106104f957fe5b9050602002013588888481811061050c57fe5b9050602002013560ff1687878560020281811061052557fe5b9050602002013588886001876002020181811061053e57fe5b9050602002013560405160008152602001604052604051808581526020018460ff1660ff1681526020018381526020018281526020019450505050506020604051602081039080840390855afa15801561059c573d6000803e3d6000fd5b505050602060405103519150600460009054906101000a900473ffffffffffffffffffffffffffffffffffffffff1673ffffffffffffffffffffffffffffffffffffffff1663e226a1b6836040518263ffffffff1660e01b8152600401808273ffffffffffffffffffffffffffffffffffffffff1673ffffffffffffffffffffffffffffffffffffffff16815260200191505060206040518083038186803b15801561064757600080fd5b505afa15801561065b573d6000803e3d6000fd5b505050506040513d602081101561067157600080fd5b8101908080519060200190929190505050801561076d5750600460009054906101000a900473ffffffffffffffffffffffffffffffffffffffff1673ffffffffffffffffffffffffffffffffffffffff1663fe151a9684846040518363ffffffff1660e01b8152600401808381526020018273ffffffffffffffffffffffffffffffffffffffff1673ffffffffffffffffffffffffffffffffffffffff1681526020019250505060206040518083038186803b15801561073057600080fd5b505afa158015610744573d6000803e3d6000fd5b505050506040513d602081101561075a57600080fd5b8101908080519060200190929190505050155b156108785760008b8b8381811061078057fe5b90506020020135146107a357600d600081548092919060010191905055506107b6565b600e600081548092919060010191905055505b600460009054906101000a900473ffffffffffffffffffffffffffffffffffffffff1673ffffffffffffffffffffffffffffffffffffffff1663287d3d3684846040518363ffffffff1660e01b8152600401808381526020018273ffffffffffffffffffffffffffffffffffffffff1673ffffffffffffffffffffffffffffffffffffffff16815260200192505050600060405180830381600087803b15801561085f57600080fd5b505af1158015610873573d6000803e3d6000fd5b505050505b80806001019150506104e0565b506001600460009054906101000a900473ffffffffffffffffffffffffffffffffffffffff1673ffffffffffffffffffffffffffffffffffffffff16636f07abcc846040518263ffffffff1660e01b81526004018082815260200191505060206040518083038186803b1580156108fb57600080fd5b505afa15801561090f573d6000803e3d6000fd5b505050506040513d602081101561092557600080fd5b81019080805190602001909291905050501415610d6c576060600160405190808252806020026020018201604052801561096e5781602001602082028038833980820191505090505b509050600e54600d54118015610a335750600460009054906101000a900473ffffffffffffffffffffffffffffffffffffffff1673ffffffffffffffffffffffffffffffffffffffff16634615d5e9846040518263ffffffff1660e01b81526004018082815260200191505060206040518083038186803b1580156109f257600080fd5b505afa158015610a06573d6000803e3d6000fd5b505050506040513d6020811015610a1c57600080fd5b8101908080519060200190929190505050600d5410155b15610af157600460009054906101000a900473ffffffffffffffffffffffffffffffffffffffff1673ffffffffffffffffffffffffffffffffffffffff166381f668448460026040518363ffffffff1660e01b81526004018083815260200182815260200192505050600060405180830381600087803b158015610ab657600080fd5b505af1158015610aca573d6000803e3d6000fd5b50505050600181600081518110610add57fe5b602002602001018181525050505050610d6f565b600d54600e54118015610bb35750600460009054906101000a900473ffffffffffffffffffffffffffffffffffffffff1673ffffffffffffffffffffffffffffffffffffffff16634615d5e9846040518263ffffffff1660e01b81526004018082815260200191505060206040518083038186803b158015610b7257600080fd5b505afa158015610b86573d6000803e3d6000fd5b505050506040513d6020811015610b9c57600080fd5b8101908080519060200190929190505050600e5410155b15610d6a57600460009054906101000a900473ffffffffffffffffffffffffffffffffffffffff1673ffffffffffffffffffffffffffffffffffffffff166381f668448460026040518363ffffffff1660e01b81526004018083815260200182815260200192505050600060405180830381600087803b158015610c3657600080fd5b505af1158015610c4a573d6000803e3d6000fd5b50505050600081600081518110610c5d57fe5b6020026020010181815250506000809054906101000a900473ffffffffffffffffffffffffffffffffffffffff1673ffffffffffffffffffffffffffffffffffffffff1663ef05ab0b84836040518363ffffffff1660e01b81526004018083815260200180602001828103825283818151815260200191508051906020019060200280838360005b83811015610d00578082015181840152602081019050610ce5565b505050509050019350505050602060405180830381600087803b158015610d2657600080fd5b505af1158015610d3a573d6000803e3d6000fd5b505050506040513d6020811015610d5057600080fd5b810190808051906020019092919050505050505050610d6f565b505b50505b505050505050505050565b6000600f60003373ffffffffffffffffffffffffffffffffffffffff1673ffffffffffffffffffffffffffffffffffffffff1681526020019081526020016000205490506000811415610e35576040517f08c379a00000000000000000000000000000000000000000000000000000000081526004018080602001828103825260138152602001807f4e6f207061796f757420617661696c61626c650000000000000000000000000081525060200191505060405180910390fd5b80600360009054906101000a900473ffffffffffffffffffffffffffffffffffffffff1673ffffffffffffffffffffffffffffffffffffffff166370a08231306040518263ffffffff1660e01b8152600401808273ffffffffffffffffffffffffffffffffffffffff1673ffffffffffffffffffffffffffffffffffffffff16815260200191505060206040518083038186803b158015610ed557600080fd5b505afa158015610ee9573d6000803e3d6000fd5b505050506040513d6020811015610eff57600080fd5b81019080805190602001909291905050501015610f84576040517f08c379a000000000000000000000000000000000000000000000000000000000815260040180806020018281038252601c8152602001807f4e6f7420656e6f7567682066756e647320696e20636f6e74726163740000000081525060200191505060405180910390fd5b6000600f60003373ffffffffffffffffffffffffffffffffffffffff1673ffffffffffffffffffffffffffffffffffffffff16815260200190815260200160002081905550600360009054906101000a900473ffffffffffffffffffffffffffffffffffffffff1673ffffffffffffffffffffffffffffffffffffffff1663a9059cbb33836040518363ffffffff1660e01b8152600401808373ffffffffffffffffffffffffffffffffffffffff1673ffffffffffffffffffffffffffffffffffffffff16815260200182815260200192505050602060405180830381600087803b15801561107257600080fd5b505af1158015611086573d6000803e3d6000fd5b505050506040513d602081101561109c57600080fd5b810190808051906020019092919050505061111f576040517f08c379a00000000000000000000000000000000000000000000000000000000081526004018080602001828103825260178152602001807f4661696c656420746f205472616e66657220546f6b656e00000000000000000081525060200191505060405180910390fd5b50565b600460009054906101000a900473ffffffffffffffffffffffffffffffffffffffff1673ffffffffffffffffffffffffffffffffffffffff1663e226a1b6336040518263ffffffff1660e01b8152600401808273ffffffffffffffffffffffffffffffffffffffff1673ffffffffffffffffffffffffffffffffffffffff16815260200191505060206040518083038186803b1580156111c157600080fd5b505afa1580156111d5573d6000803e3d6000fd5b505050506040513d60208110156111eb57600080fd5b810190808051906020019092919050505061126e576040517f08c379a000000000000000000000000000000000000000000000000000000000815260040180806020018281038252600d8152602001807f496e76616c696420566f7465720000000000000000000000000000000000000081525060200191505060405180910390fd5b6010600081548092919060010191905055506002600460009054906101000a900473ffffffffffffffffffffffffffffffffffffffff1673ffffffffffffffffffffffffffffffffffffffff1663602bb04f6040518163ffffffff1660e01b815260040160206040518083038186803b1580156112ea57600080fd5b505afa1580156112fe573d6000803e3d6000fd5b505050506040513d602081101561131457600080fd5b81019080805190602001909291905050508161132c57fe5b0460105411156119e4576000600160009054906101000a900473ffffffffffffffffffffffffffffffffffffffff1673ffffffffffffffffffffffffffffffffffffffff1663bbee369430306040518363ffffffff1660e01b8152600401808373ffffffffffffffffffffffffffffffffffffffff1673ffffffffffffffffffffffffffffffffffffffff1681526020018273ffffffffffffffffffffffffffffffffffffffff1673ffffffffffffffffffffffffffffffffffffffff168152602001807f4e6f6e70726f76696465727300000000000000000000000000000000000000008152506020019250505060206040518083038186803b15801561143357600080fd5b505afa158015611447573d6000803e3d6000fd5b505050506040513d602081101561145d57600080fd5b81019080805190602001909291905050509050600081116114e6576040517f08c379a000000000000000000000000000000000000000000000000000000000815260040180806020018281038252600d8152602001807f4e6f20646f747320626f756e640000000000000000000000000000000000000081525060200191505060405180910390fd5b600160009054906101000a900473ffffffffffffffffffffffffffffffffffffffff1673ffffffffffffffffffffffffffffffffffffffff1663a06fe77530836040518363ffffffff1660e01b8152600401808373ffffffffffffffffffffffffffffffffffffffff1673ffffffffffffffffffffffffffffffffffffffff168152602001807f4e6f6e70726f766964657273000000000000000000000000000000000000000081525060200182815260200192505050602060405180830381600087803b1580156115b757600080fd5b505af11580156115cb573d6000803e3d6000fd5b505050506040513d60208110156115e157600080fd5b810190808051906020019092919050505050600460009054906101000a900473ffffffffffffffffffffffffffffffffffffffff1673ffffffffffffffffffffffffffffffffffffffff1663602bb04f6040518163ffffffff1660e01b815260040160206040518083038186803b15801561165b57600080fd5b505afa15801561166f573d6000803e3d6000fd5b505050506040513d602081101561168557600080fd5b8101908080519060200190929190505050600360009054906101000a900473ffffffffffffffffffffffffffffffffffffffff1673ffffffffffffffffffffffffffffffffffffffff166370a08231306040518263ffffffff1660e01b8152600401808273ffffffffffffffffffffffffffffffffffffffff1673ffffffffffffffffffffffffffffffffffffffff16815260200191505060206040518083038186803b15801561173557600080fd5b505afa158015611749573d6000803e3d6000fd5b505050506040513d602081101561175f57600080fd5b81019080805190602001909291905050508161177757fe5b0490506060600460009054906101000a900473ffffffffffffffffffffffffffffffffffffffff1673ffffffffffffffffffffffffffffffffffffffff166312faae936040518163ffffffff1660e01b815260040160006040518083038186803b1580156117e457600080fd5b505afa1580156117f8573d6000803e3d6000fd5b505050506040513d6000823e3d601f19601f82011682018060405250602081101561182257600080fd5b810190808051604051939291908464010000000082111561184257600080fd5b8382019150602082018581111561185857600080fd5b825186602082028301116401000000008211171561187557600080fd5b8083526020830192505050908051906020019060200280838360005b838110156118ac578082015181840152602081019050611891565b50505050905001604052505050905060008090505b600460009054906101000a900473ffffffffffffffffffffffffffffffffffffffff1673ffffffffffffffffffffffffffffffffffffffff1663602bb04f6040518163ffffffff1660e01b815260040160206040518083038186803b15801561192957600080fd5b505afa15801561193d573d6000803e3d6000fd5b505050506040513d602081101561195357600080fd5b81019080805190602001909291905050508110156119d85782600f600084848151811061197c57fe5b602002602001015173ffffffffffffffffffffffffffffffffffffffff1673ffffffffffffffffffffffffffffffffffffffff1681526020019081526020016000206000828254019250508190555080806001019150506118c1565b50600060108190555050505b565b600b5481565b600960009054906101000a900473ffffffffffffffffffffffffffffffffffffffff1681565b600460009054906101000a900473ffffffffffffffffffffffffffffffffffffffff1673ffffffffffffffffffffffffffffffffffffffff1663664c0bf9826040518263ffffffff1660e01b81526004018080602001828103825283818151815260200191508051906020019060200280838360005b83811015611aa3578082015181840152602081019050611a88565b5050505090500192505050600060405180830381600087803b158015611ac857600080fd5b505af1158015611adc573d6000803e3d6000fd5b5050505060007f4d756c746950617274794f7261636c65000000000000000000000000000000009050600260009054906101000a900473ffffffffffffffffffffffffffffffffffffffff1673ffffffffffffffffffffffffffffffffffffffff1663af87c833613039836040518363ffffffff1660e01b81526004018083815260200182815260200192505050602060405180830381600087803b158015611b8457600080fd5b505af1158015611b98573d6000803e3d6000fd5b505050506040513d6020811015611bae57600080fd5b810190808051906020019092919050505050600260009054906101000a900473ffffffffffffffffffffffffffffffffffffffff1673ffffffffffffffffffffffffffffffffffffffff1663238b3aed600b54600c60006040518463ffffffff1660e01b815260040180848152602001806020018373ffffffffffffffffffffffffffffffffffffffff1673ffffffffffffffffffffffffffffffffffffffff1681526020018281038252848181548152602001915080548015611c9157602002820191906000526020600020905b815481526020019060010190808311611c7d575b5050945050505050602060405180830381600087803b158015611cb357600080fd5b505af1158015611cc7573d6000803e3d6000fd5b505050506040513d6020811015611cdd57600080fd5b8101908080519060200190929190505050505050565b7f3029607cc6a3c9da1151808d70477d5629884ae9cf28dace18a0043d89460cf88686868686336040518080602001868152602001806020018473ffffffffffffffffffffffffffffffffffffffff1673ffffffffffffffffffffffffffffffffffffffff1681526020018381038352898982818152602001925080828437600081840152601f19601f8201169050808301925050508381038252868682818152602001925060200280828437600081840152601f19601f8201169050808301925050509850505050505050505060405180910390a1600560009054906101000a900473ffffffffffffffffffffffffffffffffffffffff1673ffffffffffffffffffffffffffffffffffffffff163373ffffffffffffffffffffffffffffffffffffffff16148015611ed357506000600460009054906101000a900473ffffffffffffffffffffffffffffffffffffffff1673ffffffffffffffffffffffffffffffffffffffff16636f07abcc896040518263ffffffff1660e01b81526004018082815260200191505060206040518083038186803b158015611e9657600080fd5b505afa158015611eaa573d6000803e3d6000fd5b505050506040513d6020811015611ec057600080fd5b8101908080519060200190929190505050145b611f45576040517f08c379a000000000000000000000000000000000000000000000000000000000815260040180806020018281038252600d8152602001807f4469737061746368206f6e6c790000000000000000000000000000000000000081525060200191505060405180910390fd5b60008460405160200180828152602001915050604051602081830303815290604052805190602001209050600084846002818110611f7f57fe5b9050602002013560001c905060008111801561203d5750600460009054906101000a900473ffffffffffffffffffffffffffffffffffffffff1673ffffffffffffffffffffffffffffffffffffffff1663602bb04f6040518163ffffffff1660e01b815260040160206040518083038186803b158015611ffe57600080fd5b505afa158015612012573d6000803e3d6000fd5b505050506040513d602081101561202857600080fd5b81019080805190602001909291905050508111155b6120af576040517f08c379a00000000000000000000000000000000000000000000000000000000081526004018080602001828103825260188152602001807f496e76616c6964205468726573686f6c64204c656e677468000000000000000081525060200191505060405180910390fd5b600460009054906101000a900473ffffffffffffffffffffffffffffffffffffffff1673ffffffffffffffffffffffffffffffffffffffff1663b9c362098a836040518363ffffffff1660e01b81526004018083815260200182815260200192505050600060405180830381600087803b15801561212c57600080fd5b505af1158015612140573d6000803e3d6000fd5b50505050600b54604051602001808281526020019150506040516020818303038152906040528051906020012082141561267e57600460009054906101000a900473ffffffffffffffffffffffffffffffffffffffff1673ffffffffffffffffffffffffffffffffffffffff166381f668448a60016040518363ffffffff1660e01b81526004018083815260200182815260200192505050600060405180830381600087803b1580156121f257600080fd5b505af1158015612206573d6000803e3d6000fd5b50505050600080600090505b600460009054906101000a900473ffffffffffffffffffffffffffffffffffffffff1673ffffffffffffffffffffffffffffffffffffffff1663602bb04f6040518163ffffffff1660e01b815260040160206040518083038186803b15801561227a57600080fd5b505afa15801561228e573d6000803e3d6000fd5b505050506040513d60208110156122a457600080fd5b810190808051906020019092919050505081101561267b5743428b8b8e600460009054906101000a900473ffffffffffffffffffffffffffffffffffffffff1673ffffffffffffffffffffffffffffffffffffffff16634155b850876040518263ffffffff1660e01b81526004018082815260200191505060206040518083038186803b15801561233457600080fd5b505afa158015612348573d6000803e3d6000fd5b505050506040513d602081101561235e57600080fd5b810190808051906020019092919050505060405160200180878152602001868152602001858580828437808301925050508381526020018273ffffffffffffffffffffffffffffffffffffffff1673ffffffffffffffffffffffffffffffffffffffff1660601b815260140196505050505050506040516020818303038152906040528051906020012060001c9150600460009054906101000a900473ffffffffffffffffffffffffffffffffffffffff1673ffffffffffffffffffffffffffffffffffffffff16638be8f272838d6040518363ffffffff1660e01b81526004018083815260200182815260200192505050600060405180830381600087803b15801561246a57600080fd5b505af115801561247e573d6000803e3d6000fd5b505050507f69741cc3ec0270f258feb6b53b42ef1e7d2251a3c8eea4f6ba1f72bd4b7beba782600460009054906101000a900473ffffffffffffffffffffffffffffffffffffffff1673ffffffffffffffffffffffffffffffffffffffff16634155b850846040518263ffffffff1660e01b81526004018082815260200191505060206040518083038186803b15801561251757600080fd5b505afa15801561252b573d6000803e3d6000fd5b505050506040513d602081101561254157600080fd5b8101908080519060200190929190505050308d8d8c8c6001604051808981526020018873ffffffffffffffffffffffffffffffffffffffff1673ffffffffffffffffffffffffffffffffffffffff1681526020018773ffffffffffffffffffffffffffffffffffffffff1673ffffffffffffffffffffffffffffffffffffffff16815260200180602001807f48656c6c6f3f000000000000000000000000000000000000000000000000000081525060200180602001841515151581526020018381038352888882818152602001925080828437600081840152601f19601f8201169050808301925050508381038252868682818152602001925060200280828437600081840152601f19601f8201169050808301925050509a505050505050505050505060405180910390a18080600101915050612212565b50505b50505050505050505056fea265627a7a723158201971c8cda8dbf9b80ea8bb5c6d609632d5c8aaaa8b80959f5222e65aca7c5f4b64736f6c63430005100032",
  "source": "pragma solidity ^0.5.1;\n\nimport \"./MPOStorage.sol\";\nimport \"./lib/Destructible.sol\";\nimport \"./lib/ZapInterface.sol\";\n// import \"./ECRecovery.sol\";\n// @title - A MultiPartyOracle contract that implements the client1 callback\n// @authors - Max Inciong, Jonathan Pang, Jon Morales\n// @notice the contract receives queries from dispatch and queries multiple providers to resolve the query\n\ncontract MultiPartyOracle {\n    event RecievedQuery(string query, bytes32 endpoint, bytes32[] params, address sender);\n    event ReceivedResponse(uint256 queryId, address responder, string response);\n    event Incoming(\n        uint256 id,\n        address provider,\n        address subscriber,\n        string query,\n        bytes32 endpoint,\n        bytes32[] endpointParams,\n        bool onchainSubscriber\n    );\n\n    event Result1(uint256 id, string response1);\n\n    ZapInterface dispatch;\n    ZapInterface bondage;\n    ZapInterface registry;\n    ZapInterface ztoken;\n    MPOStorage stor;\n    \n    //move dispatch address to storage\n    address dispatchAddress;\n    address bondageAddress;\n    address registryAddress;\n    address ztokenAddress;\n    address public storageAddress;\n    address aggregator; \n\n    bytes32 public spec3 = \"Nonproviders\";\n    int256[] curve3 = [1,1,1000000000];\n    // @notice constructor that sets up zap registry, dispatch, and MPO storage. Also sets up registry provider curve\n    // @param address registryAddress\n    // @param address _dispatchAddress\n    // @param address mpoStorageAddress\n    constructor(address _zapCoord, address mpoStorageAddress) public{\n        // require(_responders.length<=stor.getNumResponders(), \"Soft Cap reached\");\n        registryAddress = ZapInterface(_zapCoord).getContract(\"REGISTRY\");\n        registry = ZapInterface(registryAddress);\n        dispatchAddress = ZapInterface(_zapCoord).getContract(\"DISPATCH\");\n        dispatch = ZapInterface(dispatchAddress);\n        bondageAddress = ZapInterface(_zapCoord).getContract(\"BONDAGE\");\n        bondage = ZapInterface(bondageAddress);\n        ztokenAddress = ZapInterface(_zapCoord).getContract(\"ZAP_TOKEN\");\n        ztoken = ZapInterface(ztokenAddress);\n        stor = MPOStorage(mpoStorageAddress);\n    }\n    function setup(address[] memory _responders) public{\n        stor.setResponders(_responders);\n        bytes32 title = \"MultiPartyOracle\";\n        registry.initiateProvider(12345, title);\n        registry.initiateProviderCurve(spec3, curve3, address(0));\n\n    }\n    \n    // middleware function for handling queries\n    // @notice recieves query, called from dispatch\n    // @param uint256 id Dispatch created query ID\n    // @param string userQuery User provided query String\n    // @param bytes32 endpoint Determines whether to use Onchain Providers, Offchain Providers, Non-Providers\n    // @param bytes32[] endpointParams Parameters passed to providers\n    // @param bool onchainSubscriber Unused boolean that determines if subscriber is a smart contract\n    function receive(uint256 id, string calldata userQuery, bytes32 endpoint, bytes32[] calldata endpointParams, bool onchainSubscriber) external {\n        emit RecievedQuery(userQuery, endpoint, endpointParams, msg.sender);\n        require(msg.sender == dispatchAddress && stor.getQueryStatus(id) == 0, \"Dispatch only\");\n        // endpoint params [from, to, threshold, precision, delta]\n        bytes32 hash = keccak256(abi.encodePacked(endpoint));\n        uint256 threshold = uint(endpointParams[2]);\n        require(threshold > 0 && threshold <= stor.getNumResponders(),\"Invalid Threshold Length\");\n        stor.setThreshold(id, threshold );\n        \n        if(hash == keccak256(abi.encodePacked(spec3))) {\n            stor.setQueryStatus(id,1);\n            uint256 mpoid;\n            for(uint i=0; i<stor.getNumResponders(); i++) {      \n                mpoid=uint256(keccak256(abi.encodePacked(\n                                block.number, now, userQuery,id,stor.getResponderAddress(i)\n                                )));\n                stor.setClientQueryId(mpoid, id);\n                emit Incoming(mpoid, stor.getResponderAddress(i),address(this), userQuery, \"Hello?\", endpointParams, true);\n                \n            }\n        }\n    }\n\n    // @notice callback used by dispatch or nonproviders once a response has been created for the query\n    // @param queryId MPO or dispatch generated MPOID to used to determine client query ID\n    // @param response Response to be returned to client\n    // @param msgHash, sigv, sigr, sigs to be used in ecrecover\n    // @dev \n    uint numTrue = 0;\n    uint numFalse = 0;\n    function callback(uint256 mpoId, uint256[] calldata responses, bytes32[] calldata msgHash, uint8[] calldata sigv, bytes32[] calldata sigrs) external {\n        // require(msg.sender == aggregator, \"Invalid aggregator\");\n        \n        uint256 queryId = stor.getClientQueryId(mpoId);\n        address sender;\n        \n        for(uint i=0;i<msgHash.length;i++){\n            sender = ecrecover(msgHash[i],sigv[i],sigrs[2*i],sigrs[2*i+1]);\n            // If address is in whitelist\n            if( stor.getAddressStatus(sender) && !stor.onlyOneResponse(queryId,sender)){\n                    if(responses[i]!=0){\n                        numTrue++;\n                    }\n                    else{\n                        numFalse++;\n                    }\n                    stor.addResponse(queryId,sender);\n                }\n        }\n        \n        // Query status 0 = not started, 1 = in progress, 2 = complete\n        if(stor.getQueryStatus(queryId) == 1) {\n            // If enough answers meet the threshold send back the average of the answers\n            int256[] memory response=new int256[](1);\n            if(numTrue>numFalse && numTrue >= stor.getThreshold(queryId)){                \n                stor.setQueryStatus(queryId, 2);\n                response[0]=1;\n                return;\n            }\n            if(numFalse>numTrue && numFalse >= stor.getThreshold(queryId)){\n                stor.setQueryStatus(queryId, 2);\n                response[0]=0;\n                dispatch.respondIntArray(queryId, response);\n                return;\n            }\n        }\n        \n\n    }\n    mapping(address => uint) credits;\n    uint payoutTally = 0;\n    function payout() external {\n        require(stor.getAddressStatus(msg.sender), \"Invalid Voter\");\n        payoutTally++;\n        \n        if(payoutTally > stor.getNumResponders()/2){\n            uint payoutVal = bondage.getBoundDots(address(this),address(this),\"Nonproviders\");\n            require(payoutVal>0, \"No dots bound\");\n            bondage.unbond(address(this),\"Nonproviders\",payoutVal);\n            payoutVal = ztoken.balanceOf(address(this))/stor.getNumResponders();\n            address[] memory payArr = stor.getResponders();\n            for(uint i=0; i<stor.getNumResponders(); i++) {\n                credits[payArr[i]] += payoutVal;\n                // require(ztoken.transfer(payArr[i],payout), \"Failed to Tranfer Token\");\n            }\n            payoutTally=0;\n        }\n        \n        \n\n    }\n\n    function withdrawBalance() public {\n        uint amount = credits[msg.sender];\n\n        require(amount != 0, \"No payout available\");\n        require(ztoken.balanceOf(address(this)) >= amount, \"Not enough funds in contract\");\n\n        credits[msg.sender] = 0;\n\n        require(ztoken.transfer(msg.sender, amount), \"Failed to Tranfer Token\");\n    }\n\n  }\n    \n\n",
  "sourcePath": "/home/otacon9000/work/zap_java/jzap/contracts/MPO/MultiPartyOracle.sol",
  "compiler": {
    "name": "solc",
    "version": "0.5.16+commit.9c3226ce.Emscripten.clang"
  },
  "schemaVersion": "3.3.3",
  "updatedAt": "2021-01-25T21:33:48.686Z",
  "devdoc": {
    "methods": {}
  },
  "userdoc": {
    "methods": {}
  }
}