{
  "contractName": "ZapCoordinator",
  "abi": [
    {
      "anonymous": false,
      "inputs": [
        {
          "indexed": true,
          "internalType": "address",
          "name": "previousOwner",
          "type": "address"
        },
        {
          "indexed": true,
          "internalType": "address",
          "name": "newOwner",
          "type": "address"
        }
      ],
      "name": "OwnershipTransferred",
      "type": "event"
    },
    {
      "anonymous": false,
      "inputs": [
        {
          "indexed": false,
          "internalType": "string",
          "name": "name",
          "type": "string"
        },
        {
          "indexed": false,
          "internalType": "address",
          "name": "previousAddr",
          "type": "address"
        },
        {
          "indexed": false,
          "internalType": "address",
          "name": "newAddr",
          "type": "address"
        }
      ],
      "name": "UpdatedContract",
      "type": "event"
    },
    {
      "anonymous": false,
      "inputs": [
        {
          "indexed": false,
          "internalType": "uint256",
          "name": "timestamp",
          "type": "uint256"
        },
        {
          "indexed": false,
          "internalType": "string",
          "name": "contractName",
          "type": "string"
        },
        {
          "indexed": false,
          "internalType": "address",
          "name": "contractAddr",
          "type": "address"
        }
      ],
      "name": "UpdatedDependencies",
      "type": "event"
    },
    {
      "constant": true,
      "inputs": [],
      "name": "db",
      "outputs": [
        {
          "internalType": "contract DatabaseInterface",
          "name": "",
          "type": "address"
        }
      ],
      "payable": false,
      "stateMutability": "view",
      "type": "function"
    },
    {
      "constant": true,
      "inputs": [
        {
          "internalType": "uint256",
          "name": "",
          "type": "uint256"
        }
      ],
      "name": "loadedContracts",
      "outputs": [
        {
          "internalType": "string",
          "name": "",
          "type": "string"
        }
      ],
      "payable": false,
      "stateMutability": "view",
      "type": "function"
    },
    {
      "constant": true,
      "inputs": [],
      "name": "owner",
      "outputs": [
        {
          "internalType": "address payable",
          "name": "",
          "type": "address"
        }
      ],
      "payable": false,
      "stateMutability": "view",
      "type": "function"
    },
    {
      "constant": false,
      "inputs": [
        {
          "internalType": "address payable",
          "name": "newOwner",
          "type": "address"
        }
      ],
      "name": "transferOwnership",
      "outputs": [],
      "payable": false,
      "stateMutability": "nonpayable",
      "type": "function"
    },
    {
      "constant": false,
      "inputs": [
        {
          "internalType": "string",
          "name": "contractName",
          "type": "string"
        },
        {
          "internalType": "address",
          "name": "newAddress",
          "type": "address"
        }
      ],
      "name": "addImmutableContract",
      "outputs": [],
      "payable": false,
      "stateMutability": "nonpayable",
      "type": "function"
    },
    {
      "constant": false,
      "inputs": [
        {
          "internalType": "string",
          "name": "contractName",
          "type": "string"
        },
        {
          "internalType": "address",
          "name": "newAddress",
          "type": "address"
        }
      ],
      "name": "updateContract",
      "outputs": [],
      "payable": false,
      "stateMutability": "nonpayable",
      "type": "function"
    },
    {
      "constant": true,
      "inputs": [
        {
          "internalType": "uint256",
          "name": "index",
          "type": "uint256"
        }
      ],
      "name": "getContractName",
      "outputs": [
        {
          "internalType": "string",
          "name": "",
          "type": "string"
        }
      ],
      "payable": false,
      "stateMutability": "view",
      "type": "function"
    },
    {
      "constant": true,
      "inputs": [
        {
          "internalType": "string",
          "name": "contractName",
          "type": "string"
        }
      ],
      "name": "getContract",
      "outputs": [
        {
          "internalType": "address",
          "name": "",
          "type": "address"
        }
      ],
      "payable": false,
      "stateMutability": "view",
      "type": "function"
    },
    {
      "constant": false,
      "inputs": [],
      "name": "updateAllDependencies",
      "outputs": [],
      "payable": false,
      "stateMutability": "nonpayable",
      "type": "function"
    }
  ],
  "bytecode": "0x6080604052336000806101000a81548173ffffffffffffffffffffffffffffffffffffffff021916908373ffffffffffffffffffffffffffffffffffffffff1602179055506111ef806100536000396000f3fe608060405234801561001057600080fd5b50600436106100935760003560e01c80634d655aff116100665780634d655aff146102dd578063697a60b3146103275780638da5cb5b146103c0578063ca8e2bdd1461040a578063f2fde38b146104b157610093565b806321d8ad4c146100985780632944363f1461013f57806329e63cd71461014957806335817773146101e2575b600080fd5b6100c4600480360360208110156100ae57600080fd5b81019080803590602001909291905050506104f5565b6040518080602001828103825283818151815260200191508051906020019080838360005b838110156101045780820151818401526020810190506100e9565b50505050905090810190601f1680156101315780820380516001836020036101000a031916815260200191505b509250505060405180910390f35b6101476105ae565b005b6101e06004803603604081101561015f57600080fd5b810190808035906020019064010000000081111561017c57600080fd5b82018360208201111561018e57600080fd5b803590602001918460018302840111640100000000831117156101b057600080fd5b9091929391929390803573ffffffffffffffffffffffffffffffffffffffff169060200190929190505050610842565b005b61029b600480360360208110156101f857600080fd5b810190808035906020019064010000000081111561021557600080fd5b82018360208201111561022757600080fd5b8035906020019184600183028401116401000000008311171561024957600080fd5b91908080601f016020809104026020016040519081016040528093929190818152602001838380828437600081840152601f19601f820116905080830192505050505050509192919290505050610a48565b604051808273ffffffffffffffffffffffffffffffffffffffff1673ffffffffffffffffffffffffffffffffffffffff16815260200191505060405180910390f35b6102e5610adb565b604051808273ffffffffffffffffffffffffffffffffffffffff1673ffffffffffffffffffffffffffffffffffffffff16815260200191505060405180910390f35b6103be6004803603604081101561033d57600080fd5b810190808035906020019064010000000081111561035a57600080fd5b82018360208201111561036c57600080fd5b8035906020019184600183028401116401000000008311171561038e57600080fd5b9091929391929390803573ffffffffffffffffffffffffffffffffffffffff169060200190929190505050610b01565b005b6103c8610ee6565b604051808273ffffffffffffffffffffffffffffffffffffffff1673ffffffffffffffffffffffffffffffffffffffff16815260200191505060405180910390f35b6104366004803603602081101561042057600080fd5b8101908080359060200190929190505050610f0b565b6040518080602001828103825283818151815260200191508051906020019080838360005b8381101561047657808201518184015260208101905061045b565b50505050905090810190601f1680156104a35780820380516001836020036101000a031916815260200191505b509250505060405180910390f35b6104f3600480360360208110156104c757600080fd5b81019080803573ffffffffffffffffffffffffffffffffffffffff169060200190929190505050610fc4565b005b60606002828154811061050457fe5b906000526020600020018054600181600116156101000203166002900480601f0160208091040260200160405190810160405280929190818152602001828054600181600116156101000203166002900480156105a25780601f10610577576101008083540402835291602001916105a2565b820191906000526020600020905b81548152906001019060200180831161058557829003601f168201915b50505050509050919050565b6000809054906101000a900473ffffffffffffffffffffffffffffffffffffffff1673ffffffffffffffffffffffffffffffffffffffff163373ffffffffffffffffffffffffffffffffffffffff161461060757600080fd5b60008090505b60028054905081101561083f57600060016002838154811061062b57fe5b9060005260206000200160405180828054600181600116156101000203166002900480156106905780601f1061066e576101008083540402835291820191610690565b820191906000526020600020905b81548152906001019060200180831161067c575b5050915050908152602001604051809103902060009054906101000a900473ffffffffffffffffffffffffffffffffffffffff1690508073ffffffffffffffffffffffffffffffffffffffff16636e5ecdff6040518163ffffffff1660e01b8152600401600060405180830381600087803b15801561070e57600080fd5b505af1158015610722573d6000803e3d6000fd5b505050507ff16f69d181cb9b84ef2392d232ea0726dcf57689ccb091c7ff89e8b913148062426002848154811061075557fe5b906000526020600020018360405180848152602001806020018373ffffffffffffffffffffffffffffffffffffffff1673ffffffffffffffffffffffffffffffffffffffff1681526020018281038252848181546001816001161561010002031660029004815260200191508054600181600116156101000203166002900480156108215780601f106107f657610100808354040283529160200191610821565b820191906000526020600020905b81548152906001019060200180831161080457829003601f168201915b505094505050505060405180910390a150808060010191505061060d565b50565b6000809054906101000a900473ffffffffffffffffffffffffffffffffffffffff1673ffffffffffffffffffffffffffffffffffffffff163373ffffffffffffffffffffffffffffffffffffffff161461089b57600080fd5b600073ffffffffffffffffffffffffffffffffffffffff1660018484604051808383808284378083019250505092505050908152602001604051809103902060009054906101000a900473ffffffffffffffffffffffffffffffffffffffff1673ffffffffffffffffffffffffffffffffffffffff161461091857fe5b8060018484604051808383808284378083019250505092505050908152602001604051809103902060006101000a81548173ffffffffffffffffffffffffffffffffffffffff021916908373ffffffffffffffffffffffffffffffffffffffff1602179055506000838360405160200180838380828437808301925050509250505060405160208183030381529060405280519060200120905060405160200180807f4441544142415345000000000000000000000000000000000000000000000000815250600801905060405160208183030381529060405280519060200120811415610a425781600360006101000a81548173ffffffffffffffffffffffffffffffffffffffff021916908373ffffffffffffffffffffffffffffffffffffffff1602179055505b50505050565b60006001826040518082805190602001908083835b60208310610a805780518252602082019150602081019050602083039250610a5d565b6001836020036101000a038019825116818451168082178552505050505050905001915050908152602001604051809103902060009054906101000a900473ffffffffffffffffffffffffffffffffffffffff169050919050565b600360009054906101000a900473ffffffffffffffffffffffffffffffffffffffff1681565b6000809054906101000a900473ffffffffffffffffffffffffffffffffffffffff1673ffffffffffffffffffffffffffffffffffffffff163373ffffffffffffffffffffffffffffffffffffffff1614610b5a57600080fd5b600060018484604051808383808284378083019250505092505050908152602001604051809103902060009054906101000a900473ffffffffffffffffffffffffffffffffffffffff169050600073ffffffffffffffffffffffffffffffffffffffff168173ffffffffffffffffffffffffffffffffffffffff161415610c22576002848490918060018154018082558091505090600182039060005260206000200160009091929390919293909192909192509190610c1b929190611115565b5050610ce9565b600360009054906101000a900473ffffffffffffffffffffffffffffffffffffffff1673ffffffffffffffffffffffffffffffffffffffff1663a42b6bf18260006040518363ffffffff1660e01b8152600401808373ffffffffffffffffffffffffffffffffffffffff1673ffffffffffffffffffffffffffffffffffffffff1681526020018215151515815260200192505050600060405180830381600087803b158015610cd057600080fd5b505af1158015610ce4573d6000803e3d6000fd5b505050505b600360009054906101000a900473ffffffffffffffffffffffffffffffffffffffff1673ffffffffffffffffffffffffffffffffffffffff1663a42b6bf18360016040518363ffffffff1660e01b8152600401808373ffffffffffffffffffffffffffffffffffffffff1673ffffffffffffffffffffffffffffffffffffffff1681526020018215151515815260200192505050600060405180830381600087803b158015610d9757600080fd5b505af1158015610dab573d6000803e3d6000fd5b505050507f1051b92bbfac380879e24c0529d529db8a2eec4e2f07c580112ebe1fd066c3c58484838560405180806020018473ffffffffffffffffffffffffffffffffffffffff1673ffffffffffffffffffffffffffffffffffffffff1681526020018373ffffffffffffffffffffffffffffffffffffffff1673ffffffffffffffffffffffffffffffffffffffff1681526020018281038252868682818152602001925080828437600081840152601f19601f8201169050808301925050509550505050505060405180910390a18160018585604051808383808284378083019250505092505050908152602001604051809103902060006101000a81548173ffffffffffffffffffffffffffffffffffffffff021916908373ffffffffffffffffffffffffffffffffffffffff16021790555050505050565b6000809054906101000a900473ffffffffffffffffffffffffffffffffffffffff1681565b60028181548110610f1857fe5b906000526020600020016000915090508054600181600116156101000203166002900480601f016020809104026020016040519081016040528092919081815260200182805460018160011615610100020316600290048015610fbc5780601f10610f9157610100808354040283529160200191610fbc565b820191906000526020600020905b815481529060010190602001808311610f9f57829003601f168201915b505050505081565b6000809054906101000a900473ffffffffffffffffffffffffffffffffffffffff1673ffffffffffffffffffffffffffffffffffffffff163373ffffffffffffffffffffffffffffffffffffffff161461101d57600080fd5b600073ffffffffffffffffffffffffffffffffffffffff168173ffffffffffffffffffffffffffffffffffffffff16141561105757600080fd5b8073ffffffffffffffffffffffffffffffffffffffff166000809054906101000a900473ffffffffffffffffffffffffffffffffffffffff1673ffffffffffffffffffffffffffffffffffffffff167f8be0079c531659141344cd1fd0a4f28419497f9722a3daafe3b4186f6b6457e060405160405180910390a3806000806101000a81548173ffffffffffffffffffffffffffffffffffffffff021916908373ffffffffffffffffffffffffffffffffffffffff16021790555050565b828054600181600116156101000203166002900490600052602060002090601f016020900481019282601f1061115657803560ff1916838001178555611184565b82800160010185558215611184579182015b82811115611183578235825591602001919060010190611168565b5b5090506111919190611195565b5090565b6111b791905b808211156111b357600081600090555060010161119b565b5090565b9056fea265627a7a72315820ce4ee60f46db1a48ad291d817b6603f64beb75535661ffb01bf5bc1a93a1b1cf64736f6c63430005100032",
  "source": "pragma solidity ^0.5.1;\n\nimport \"./Upgradable.sol\";\nimport \"./ZapCoordinatorInterface.sol\";\nimport \"../../platform/database/DatabaseInterface.sol\";\n\ncontract ZapCoordinator is ZapCoordinatorInterface {\n\n    event UpdatedContract(string name, address previousAddr, address newAddr);\n    event UpdatedDependencies(uint timestamp, string contractName, address contractAddr);\n\n    mapping(string => address) contracts;\n\n    // names of upgradable contracts\n    string[] public loadedContracts;\n\n    DatabaseInterface public db;\n\n    // used for adding contracts like Database and ZapToken\n    function addImmutableContract(string calldata contractName, address newAddress) external onlyOwner {\n        assert(contracts[contractName] == address(0));\n        contracts[contractName] = newAddress;\n\n        // Create DB object when Database is added to Coordinator\n        bytes32 hash = keccak256(abi.encodePacked(contractName));\n        if (hash == keccak256(abi.encodePacked(\"DATABASE\"))) db = DatabaseInterface(newAddress);\n    }\n\n    // used for modifying an existing contract or adding a new contract to the system\n    function updateContract(string calldata contractName, address newAddress) external onlyOwner {\n        address prev = contracts[contractName];\n        if (prev == address(0) ) {\n            // First time adding this contract\n            loadedContracts.push(contractName);\n        } else {\n            // Deauth the old contract\n            db.setStorageContract(prev, false);\n        }\n        // give new contract database access permission\n        db.setStorageContract(newAddress, true);\n\n        emit UpdatedContract(contractName, prev, newAddress);\n        contracts[contractName] = newAddress;\n    }\n\n    function getContractName(uint index) public view returns (string memory) {\n        return loadedContracts[index];\n    }\n\n    function getContract(string memory contractName) public view returns (address) {\n        return contracts[contractName];\n    }\n\n    function updateAllDependencies() external onlyOwner {\n        for (uint i = 0; i < loadedContracts.length; i++) {\n            address c = contracts[loadedContracts[i]];\n            Upgradable(c).updateDependencies();\n            emit UpdatedDependencies(block.timestamp, loadedContracts[i], c);\n        }\n    }\n\n}\n",
  "sourcePath": "/home/otacon9000/work/zap_java/jzap/contracts/lib/ownership/ZapCoordinator.sol",
  "compiler": {
    "name": "solc",
    "version": "0.5.16+commit.9c3226ce.Emscripten.clang"
  },
  "schemaVersion": "3.3.3",
  "updatedAt": "2021-01-25T21:42:50.091Z",
  "devdoc": {
    "methods": {
      "transferOwnership(address)": {
        "details": "Allows the current owner to transfer control of the contract to a newOwner.",
        "params": {
          "newOwner": "The address to transfer ownership to."
        }
      }
    }
  },
  "userdoc": {
    "methods": {}
  }
}